{
  "address": "0xA563fBF2285b05B17edBc42472452f9f6d1aDb84",
  "abi": [
    {
      "inputs": [],
      "stateMutability": "nonpayable",
      "type": "constructor"
    },
    {
      "anonymous": false,
      "inputs": [
        {
          "indexed": true,
          "internalType": "address",
          "name": "owner",
          "type": "address"
        },
        {
          "indexed": true,
          "internalType": "address",
          "name": "approved",
          "type": "address"
        },
        {
          "indexed": true,
          "internalType": "uint256",
          "name": "tokenId",
          "type": "uint256"
        }
      ],
      "name": "Approval",
      "type": "event"
    },
    {
      "anonymous": false,
      "inputs": [
        {
          "indexed": true,
          "internalType": "address",
          "name": "owner",
          "type": "address"
        },
        {
          "indexed": true,
          "internalType": "address",
          "name": "operator",
          "type": "address"
        },
        {
          "indexed": false,
          "internalType": "bool",
          "name": "approved",
          "type": "bool"
        }
      ],
      "name": "ApprovalForAll",
      "type": "event"
    },
    {
      "anonymous": false,
      "inputs": [
        {
          "indexed": true,
          "internalType": "bytes32",
          "name": "role",
          "type": "bytes32"
        },
        {
          "indexed": true,
          "internalType": "bytes32",
          "name": "previousAdminRole",
          "type": "bytes32"
        },
        {
          "indexed": true,
          "internalType": "bytes32",
          "name": "newAdminRole",
          "type": "bytes32"
        }
      ],
      "name": "RoleAdminChanged",
      "type": "event"
    },
    {
      "anonymous": false,
      "inputs": [
        {
          "indexed": true,
          "internalType": "bytes32",
          "name": "role",
          "type": "bytes32"
        },
        {
          "indexed": true,
          "internalType": "address",
          "name": "account",
          "type": "address"
        },
        {
          "indexed": true,
          "internalType": "address",
          "name": "sender",
          "type": "address"
        }
      ],
      "name": "RoleGranted",
      "type": "event"
    },
    {
      "anonymous": false,
      "inputs": [
        {
          "indexed": true,
          "internalType": "bytes32",
          "name": "role",
          "type": "bytes32"
        },
        {
          "indexed": true,
          "internalType": "address",
          "name": "account",
          "type": "address"
        },
        {
          "indexed": true,
          "internalType": "address",
          "name": "sender",
          "type": "address"
        }
      ],
      "name": "RoleRevoked",
      "type": "event"
    },
    {
      "anonymous": false,
      "inputs": [
        {
          "indexed": true,
          "internalType": "address",
          "name": "from",
          "type": "address"
        },
        {
          "indexed": true,
          "internalType": "address",
          "name": "to",
          "type": "address"
        },
        {
          "indexed": true,
          "internalType": "uint256",
          "name": "tokenId",
          "type": "uint256"
        }
      ],
      "name": "Transfer",
      "type": "event"
    },
    {
      "inputs": [],
      "name": "DEFAULT_ADMIN_ROLE",
      "outputs": [
        {
          "internalType": "bytes32",
          "name": "",
          "type": "bytes32"
        }
      ],
      "stateMutability": "view",
      "type": "function"
    },
    {
      "inputs": [],
      "name": "MINTER_ROLE",
      "outputs": [
        {
          "internalType": "bytes32",
          "name": "",
          "type": "bytes32"
        }
      ],
      "stateMutability": "view",
      "type": "function"
    },
    {
      "inputs": [
        {
          "internalType": "address",
          "name": "to",
          "type": "address"
        },
        {
          "internalType": "uint256",
          "name": "tokenId",
          "type": "uint256"
        }
      ],
      "name": "approve",
      "outputs": [],
      "stateMutability": "nonpayable",
      "type": "function"
    },
    {
      "inputs": [
        {
          "internalType": "address",
          "name": "owner",
          "type": "address"
        }
      ],
      "name": "balanceOf",
      "outputs": [
        {
          "internalType": "uint256",
          "name": "",
          "type": "uint256"
        }
      ],
      "stateMutability": "view",
      "type": "function"
    },
    {
      "inputs": [
        {
          "internalType": "uint256",
          "name": "id",
          "type": "uint256"
        }
      ],
      "name": "burn",
      "outputs": [],
      "stateMutability": "nonpayable",
      "type": "function"
    },
    {
      "inputs": [],
      "name": "defaultUri",
      "outputs": [
        {
          "internalType": "string",
          "name": "",
          "type": "string"
        }
      ],
      "stateMutability": "view",
      "type": "function"
    },
    {
      "inputs": [
        {
          "internalType": "uint256",
          "name": "tokenId",
          "type": "uint256"
        }
      ],
      "name": "getApproved",
      "outputs": [
        {
          "internalType": "address",
          "name": "",
          "type": "address"
        }
      ],
      "stateMutability": "view",
      "type": "function"
    },
    {
      "inputs": [
        {
          "internalType": "bytes32",
          "name": "role",
          "type": "bytes32"
        }
      ],
      "name": "getRoleAdmin",
      "outputs": [
        {
          "internalType": "bytes32",
          "name": "",
          "type": "bytes32"
        }
      ],
      "stateMutability": "view",
      "type": "function"
    },
    {
      "inputs": [
        {
          "internalType": "bytes32",
          "name": "role",
          "type": "bytes32"
        },
        {
          "internalType": "address",
          "name": "account",
          "type": "address"
        }
      ],
      "name": "grantRole",
      "outputs": [],
      "stateMutability": "nonpayable",
      "type": "function"
    },
    {
      "inputs": [
        {
          "internalType": "bytes32",
          "name": "role",
          "type": "bytes32"
        },
        {
          "internalType": "address",
          "name": "account",
          "type": "address"
        }
      ],
      "name": "hasRole",
      "outputs": [
        {
          "internalType": "bool",
          "name": "",
          "type": "bool"
        }
      ],
      "stateMutability": "view",
      "type": "function"
    },
    {
      "inputs": [
        {
          "internalType": "address",
          "name": "owner",
          "type": "address"
        },
        {
          "internalType": "address",
          "name": "operator",
          "type": "address"
        }
      ],
      "name": "isApprovedForAll",
      "outputs": [
        {
          "internalType": "bool",
          "name": "",
          "type": "bool"
        }
      ],
      "stateMutability": "view",
      "type": "function"
    },
    {
      "inputs": [
        {
          "internalType": "address",
          "name": "to",
          "type": "address"
        },
        {
          "internalType": "uint256",
          "name": "mintIndex",
          "type": "uint256"
        }
      ],
      "name": "mint",
      "outputs": [],
      "stateMutability": "nonpayable",
      "type": "function"
    },
    {
      "inputs": [],
      "name": "name",
      "outputs": [
        {
          "internalType": "string",
          "name": "",
          "type": "string"
        }
      ],
      "stateMutability": "view",
      "type": "function"
    },
    {
      "inputs": [
        {
          "internalType": "uint256",
          "name": "tokenId",
          "type": "uint256"
        }
      ],
      "name": "ownerOf",
      "outputs": [
        {
          "internalType": "address",
          "name": "",
          "type": "address"
        }
      ],
      "stateMutability": "view",
      "type": "function"
    },
    {
      "inputs": [
        {
          "internalType": "bytes32",
          "name": "role",
          "type": "bytes32"
        },
        {
          "internalType": "address",
          "name": "account",
          "type": "address"
        }
      ],
      "name": "renounceRole",
      "outputs": [],
      "stateMutability": "nonpayable",
      "type": "function"
    },
    {
      "inputs": [
        {
          "internalType": "bytes32",
          "name": "role",
          "type": "bytes32"
        },
        {
          "internalType": "address",
          "name": "account",
          "type": "address"
        }
      ],
      "name": "revokeRole",
      "outputs": [],
      "stateMutability": "nonpayable",
      "type": "function"
    },
    {
      "inputs": [
        {
          "internalType": "address",
          "name": "from",
          "type": "address"
        },
        {
          "internalType": "address",
          "name": "to",
          "type": "address"
        },
        {
          "internalType": "uint256",
          "name": "tokenId",
          "type": "uint256"
        }
      ],
      "name": "safeTransferFrom",
      "outputs": [],
      "stateMutability": "nonpayable",
      "type": "function"
    },
    {
      "inputs": [
        {
          "internalType": "address",
          "name": "from",
          "type": "address"
        },
        {
          "internalType": "address",
          "name": "to",
          "type": "address"
        },
        {
          "internalType": "uint256",
          "name": "tokenId",
          "type": "uint256"
        },
        {
          "internalType": "bytes",
          "name": "_data",
          "type": "bytes"
        }
      ],
      "name": "safeTransferFrom",
      "outputs": [],
      "stateMutability": "nonpayable",
      "type": "function"
    },
    {
      "inputs": [
        {
          "internalType": "address",
          "name": "operator",
          "type": "address"
        },
        {
          "internalType": "bool",
          "name": "approved",
          "type": "bool"
        }
      ],
      "name": "setApprovalForAll",
      "outputs": [],
      "stateMutability": "nonpayable",
      "type": "function"
    },
    {
      "inputs": [
        {
          "internalType": "string",
          "name": "uri",
          "type": "string"
        }
      ],
      "name": "setDefaultUri",
      "outputs": [],
      "stateMutability": "nonpayable",
      "type": "function"
    },
    {
      "inputs": [
        {
          "internalType": "bytes4",
          "name": "interfaceId",
          "type": "bytes4"
        }
      ],
      "name": "supportsInterface",
      "outputs": [
        {
          "internalType": "bool",
          "name": "",
          "type": "bool"
        }
      ],
      "stateMutability": "view",
      "type": "function"
    },
    {
      "inputs": [],
      "name": "symbol",
      "outputs": [
        {
          "internalType": "string",
          "name": "",
          "type": "string"
        }
      ],
      "stateMutability": "view",
      "type": "function"
    },
    {
      "inputs": [
        {
          "internalType": "uint256",
          "name": "index",
          "type": "uint256"
        }
      ],
      "name": "tokenByIndex",
      "outputs": [
        {
          "internalType": "uint256",
          "name": "",
          "type": "uint256"
        }
      ],
      "stateMutability": "view",
      "type": "function"
    },
    {
      "inputs": [
        {
          "internalType": "address",
          "name": "owner",
          "type": "address"
        },
        {
          "internalType": "uint256",
          "name": "index",
          "type": "uint256"
        }
      ],
      "name": "tokenOfOwnerByIndex",
      "outputs": [
        {
          "internalType": "uint256",
          "name": "",
          "type": "uint256"
        }
      ],
      "stateMutability": "view",
      "type": "function"
    },
    {
      "inputs": [
        {
          "internalType": "uint256",
          "name": "tokenId",
          "type": "uint256"
        }
      ],
      "name": "tokenURI",
      "outputs": [
        {
          "internalType": "string",
          "name": "",
          "type": "string"
        }
      ],
      "stateMutability": "view",
      "type": "function"
    },
    {
      "inputs": [],
      "name": "totalSupply",
      "outputs": [
        {
          "internalType": "uint256",
          "name": "",
          "type": "uint256"
        }
      ],
      "stateMutability": "view",
      "type": "function"
    },
    {
      "inputs": [
        {
          "internalType": "address",
          "name": "from",
          "type": "address"
        },
        {
          "internalType": "address",
          "name": "to",
          "type": "address"
        },
        {
          "internalType": "uint256",
          "name": "tokenId",
          "type": "uint256"
        }
      ],
      "name": "transferFrom",
      "outputs": [],
      "stateMutability": "nonpayable",
      "type": "function"
    }
  ],
  "transactionHash": "0x407bc3a6fcf45677fa72f40a7cdc73d36a9c7808147d094a2708164e3d116cee",
  "args": [],
  "solcInputHash": "0df7f4d9bbaa655e9b2e37e4ad9c32d5",
  "bytecode": "0x60806040523480156200001157600080fd5b5060408051808201825260078152664772697a7a6c7960c81b60208083019182528351808501909452600484526311d4969360e21b9084015281519192916200005d916000916200016b565b508051620000739060019060208401906200016b565b506200008591506000905033620000b7565b620000b17f9f2df0fed2c77648de5860a4cc508cd0818c85b8b8a1ab4ceeef8d981c8956a633620000b7565b6200024e565b620000c38282620000c7565b5050565b6000828152600a602090815260408083206001600160a01b038516845290915290205460ff16620000c3576000828152600a602090815260408083206001600160a01b03851684529091529020805460ff19166001179055620001273390565b6001600160a01b0316816001600160a01b0316837f2f8788117e7eff1d82e926ec794901d17c78024a50270940304540a733656f0d60405160405180910390a45050565b828054620001799062000211565b90600052602060002090601f0160209004810192826200019d5760008555620001e8565b82601f10620001b857805160ff1916838001178555620001e8565b82800160010185558215620001e8579182015b82811115620001e8578251825591602001919060010190620001cb565b50620001f6929150620001fa565b5090565b5b80821115620001f65760008155600101620001fb565b600181811c908216806200022657607f821691505b602082108114156200024857634e487b7160e01b600052602260045260246000fd5b50919050565b612159806200025e6000396000f3fe608060405234801561001057600080fd5b50600436106101a95760003560e01c8063466a18de116100f9578063a22cb46511610097578063d2d99fec11610071578063d2d99fec1461038d578063d539139314610395578063d547741f146103bc578063e985e9c5146103cf57600080fd5b8063a22cb46514610354578063b88d4fde14610367578063c87b56dd1461037a57600080fd5b806370a08231116100d357806370a082311461031e57806391d148541461033157806395d89b4114610344578063a217fddf1461034c57600080fd5b8063466a18de146102e55780634f6ccce7146102f85780636352211e1461030b57600080fd5b8063248a9ca31161016657806336568abe1161014057806336568abe1461029957806340c10f19146102ac57806342842e0e146102bf57806342966c68146102d257600080fd5b8063248a9ca3146102505780632f2ff15d146102735780632f745c591461028657600080fd5b806301ffc9a7146101ae57806306fdde03146101d6578063081812fc146101eb578063095ea7b31461021657806318160ddd1461022b57806323b872dd1461023d575b600080fd5b6101c16101bc366004611a6e565b61040b565b60405190151581526020015b60405180910390f35b6101de61041c565b6040516101cd9190611ae3565b6101fe6101f9366004611af6565b6104ae565b6040516001600160a01b0390911681526020016101cd565b610229610224366004611b2b565b610548565b005b6008545b6040519081526020016101cd565b61022961024b366004611b55565b61065e565b61022f61025e366004611af6565b6000908152600a602052604090206001015490565b610229610281366004611b91565b61068f565b61022f610294366004611b2b565b6106b5565b6102296102a7366004611b91565b61074b565b6102296102ba366004611b2b565b6107c9565b6102296102cd366004611b55565b6107fe565b6102296102e0366004611af6565b610819565b6102296102f3366004611c49565b610825565b61022f610306366004611af6565b610844565b6101fe610319366004611af6565b6108d7565b61022f61032c366004611c92565b61094e565b6101c161033f366004611b91565b6109d5565b6101de610a00565b61022f600081565b610229610362366004611cad565b610a0f565b610229610375366004611ce9565b610ad4565b6101de610388366004611af6565b610b0c565b6101de610ba5565b61022f7f9f2df0fed2c77648de5860a4cc508cd0818c85b8b8a1ab4ceeef8d981c8956a681565b6102296103ca366004611b91565b610c33565b6101c16103dd366004611d65565b6001600160a01b03918216600090815260056020908152604080832093909416825291909152205460ff1690565b600061041682610c59565b92915050565b60606000805461042b90611d8f565b80601f016020809104026020016040519081016040528092919081815260200182805461045790611d8f565b80156104a45780601f10610479576101008083540402835291602001916104a4565b820191906000526020600020905b81548152906001019060200180831161048757829003601f168201915b5050505050905090565b6000818152600260205260408120546001600160a01b031661052c5760405162461bcd60e51b815260206004820152602c60248201527f4552433732313a20617070726f76656420717565727920666f72206e6f6e657860448201526b34b9ba32b73a103a37b5b2b760a11b60648201526084015b60405180910390fd5b506000908152600460205260409020546001600160a01b031690565b6000610553826108d7565b9050806001600160a01b0316836001600160a01b031614156105c15760405162461bcd60e51b815260206004820152602160248201527f4552433732313a20617070726f76616c20746f2063757272656e74206f776e656044820152603960f91b6064820152608401610523565b336001600160a01b03821614806105dd57506105dd81336103dd565b61064f5760405162461bcd60e51b815260206004820152603860248201527f4552433732313a20617070726f76652063616c6c6572206973206e6f74206f7760448201527f6e6572206e6f7220617070726f76656420666f7220616c6c00000000000000006064820152608401610523565b6106598383610c7e565b505050565b6106683382610cec565b6106845760405162461bcd60e51b815260040161052390611dca565b610659838383610de3565b6000828152600a60205260409020600101546106ab8133610f8e565b6106598383610ff2565b60006106c08361094e565b82106107225760405162461bcd60e51b815260206004820152602b60248201527f455243373231456e756d657261626c653a206f776e657220696e646578206f7560448201526a74206f6620626f756e647360a81b6064820152608401610523565b506001600160a01b03919091166000908152600660209081526040808320938352929052205490565b6001600160a01b03811633146107bb5760405162461bcd60e51b815260206004820152602f60248201527f416363657373436f6e74726f6c3a2063616e206f6e6c792072656e6f756e636560448201526e103937b632b9903337b91039b2b63360891b6064820152608401610523565b6107c58282611078565b5050565b7f9f2df0fed2c77648de5860a4cc508cd0818c85b8b8a1ab4ceeef8d981c8956a66107f48133610f8e565b61065983836110df565b61065983838360405180602001604052806000815250610ad4565b610822816110f9565b50565b60006108318133610f8e565b815161065990600b9060208501906119bf565b600061084f60085490565b82106108b25760405162461bcd60e51b815260206004820152602c60248201527f455243373231456e756d657261626c653a20676c6f62616c20696e646578206f60448201526b7574206f6620626f756e647360a01b6064820152608401610523565b600882815481106108c5576108c5611e1b565b90600052602060002001549050919050565b6000818152600260205260408120546001600160a01b0316806104165760405162461bcd60e51b815260206004820152602960248201527f4552433732313a206f776e657220717565727920666f72206e6f6e657869737460448201526832b73a103a37b5b2b760b91b6064820152608401610523565b60006001600160a01b0382166109b95760405162461bcd60e51b815260206004820152602a60248201527f4552433732313a2062616c616e636520717565727920666f7220746865207a65604482015269726f206164647265737360b01b6064820152608401610523565b506001600160a01b031660009081526003602052604090205490565b6000918252600a602090815260408084206001600160a01b0393909316845291905290205460ff1690565b60606001805461042b90611d8f565b6001600160a01b038216331415610a685760405162461bcd60e51b815260206004820152601960248201527f4552433732313a20617070726f766520746f2063616c6c6572000000000000006044820152606401610523565b3360008181526005602090815260408083206001600160a01b03871680855290835292819020805460ff191686151590811790915590519081529192917f17307eab39ab6107e8899845ad3d59bd9653f200f220920489ca2b5937696c31910160405180910390a35050565b610ade3383610cec565b610afa5760405162461bcd60e51b815260040161052390611dca565b610b06848484846111a0565b50505050565b6000818152600260205260409020546060906001600160a01b0316610b735760405162461bcd60e51b815260206004820152601f60248201527f55524920717565727920666f72206e6f6e6578697374656e7420746f6b656e006044820152606401610523565b600b610b7e836111d3565b604051602001610b8f929190611e4d565b6040516020818303038152906040529050919050565b600b8054610bb290611d8f565b80601f0160208091040260200160405190810160405280929190818152602001828054610bde90611d8f565b8015610c2b5780601f10610c0057610100808354040283529160200191610c2b565b820191906000526020600020905b815481529060010190602001808311610c0e57829003601f168201915b505050505081565b6000828152600a6020526040902060010154610c4f8133610f8e565b6106598383611078565b60006001600160e01b03198216637965db0b60e01b14806104165750610416826112d1565b600081815260046020526040902080546001600160a01b0319166001600160a01b0384169081179091558190610cb3826108d7565b6001600160a01b03167f8c5be1e5ebec7d5bd14f71427d1e84f3dd0314c0f7b2291e5b200ac8c7c3b92560405160405180910390a45050565b6000818152600260205260408120546001600160a01b0316610d655760405162461bcd60e51b815260206004820152602c60248201527f4552433732313a206f70657261746f7220717565727920666f72206e6f6e657860448201526b34b9ba32b73a103a37b5b2b760a11b6064820152608401610523565b6000610d70836108d7565b9050806001600160a01b0316846001600160a01b03161480610dab5750836001600160a01b0316610da0846104ae565b6001600160a01b0316145b80610ddb57506001600160a01b0380821660009081526005602090815260408083209388168352929052205460ff165b949350505050565b826001600160a01b0316610df6826108d7565b6001600160a01b031614610e5e5760405162461bcd60e51b815260206004820152602960248201527f4552433732313a207472616e73666572206f6620746f6b656e2074686174206960448201526839903737ba1037bbb760b91b6064820152608401610523565b6001600160a01b038216610ec05760405162461bcd60e51b8152602060048201526024808201527f4552433732313a207472616e7366657220746f20746865207a65726f206164646044820152637265737360e01b6064820152608401610523565b610ecb8383836112f6565b610ed6600082610c7e565b6001600160a01b0383166000908152600360205260408120805460019290610eff908490611f2e565b90915550506001600160a01b0382166000908152600360205260408120805460019290610f2d908490611f45565b909155505060008181526002602052604080822080546001600160a01b0319166001600160a01b0386811691821790925591518493918716917fddf252ad1be2c89b69c2b068fc378daa952ba7f163c4a11628f55a4df523b3ef91a4505050565b610f9882826109d5565b6107c557610fb0816001600160a01b031660146113ae565b610fbb8360206113ae565b604051602001610fcc929190611f5d565b60408051601f198184030181529082905262461bcd60e51b825261052391600401611ae3565b610ffc82826109d5565b6107c5576000828152600a602090815260408083206001600160a01b03851684529091529020805460ff191660011790556110343390565b6001600160a01b0316816001600160a01b0316837f2f8788117e7eff1d82e926ec794901d17c78024a50270940304540a733656f0d60405160405180910390a45050565b61108282826109d5565b156107c5576000828152600a602090815260408083206001600160a01b0385168085529252808320805460ff1916905551339285917ff6391f5c32d9c69d2a47ea670b442974b53935d1edc7fd64eb21e047a839171b9190a45050565b6107c5828260405180602001604052806000815250611551565b6000611104826108d7565b9050611112816000846112f6565b61111d600083610c7e565b6001600160a01b0381166000908152600360205260408120805460019290611146908490611f2e565b909155505060008281526002602052604080822080546001600160a01b0319169055518391906001600160a01b038416907fddf252ad1be2c89b69c2b068fc378daa952ba7f163c4a11628f55a4df523b3ef908390a45050565b6111ab848484610de3565b6111b784848484611584565b610b065760405162461bcd60e51b815260040161052390611fd2565b6060816111f75750506040805180820190915260018152600360fc1b602082015290565b8160005b8115611221578061120b81612024565b915061121a9050600a83612055565b91506111fb565b60008167ffffffffffffffff81111561123c5761123c611bbd565b6040519080825280601f01601f191660200182016040528015611266576020820181803683370190505b5090505b8415610ddb5761127b600183611f2e565b9150611288600a86612069565b611293906030611f45565b60f81b8183815181106112a8576112a8611e1b565b60200101906001600160f81b031916908160001a9053506112ca600a86612055565b945061126a565b60006001600160e01b0319821663780e9d6360e01b1480610416575061041682611691565b6001600160a01b0383166113515761134c81600880546000838152600960205260408120829055600182018355919091527ff3f7a9fe364faab93b216da50a3214154f22a0a2b415b23a84c8169e8b636ee30155565b611374565b816001600160a01b0316836001600160a01b0316146113745761137483826116e1565b6001600160a01b03821661138b576106598161177e565b826001600160a01b0316826001600160a01b03161461065957610659828261182d565b606060006113bd83600261207d565b6113c8906002611f45565b67ffffffffffffffff8111156113e0576113e0611bbd565b6040519080825280601f01601f19166020018201604052801561140a576020820181803683370190505b509050600360fc1b8160008151811061142557611425611e1b565b60200101906001600160f81b031916908160001a905350600f60fb1b8160018151811061145457611454611e1b565b60200101906001600160f81b031916908160001a905350600061147884600261207d565b611483906001611f45565b90505b60018111156114fb576f181899199a1a9b1b9c1cb0b131b232b360811b85600f16601081106114b7576114b7611e1b565b1a60f81b8282815181106114cd576114cd611e1b565b60200101906001600160f81b031916908160001a90535060049490941c936114f48161209c565b9050611486565b50831561154a5760405162461bcd60e51b815260206004820181905260248201527f537472696e67733a20686578206c656e67746820696e73756666696369656e746044820152606401610523565b9392505050565b61155b8383611871565b6115686000848484611584565b6106595760405162461bcd60e51b815260040161052390611fd2565b60006001600160a01b0384163b1561168657604051630a85bd0160e11b81526001600160a01b0385169063150b7a02906115c89033908990889088906004016120b3565b602060405180830381600087803b1580156115e257600080fd5b505af1925050508015611612575060408051601f3d908101601f1916820190925261160f918101906120f0565b60015b61166c573d808015611640576040519150601f19603f3d011682016040523d82523d6000602084013e611645565b606091505b5080516116645760405162461bcd60e51b815260040161052390611fd2565b805181602001fd5b6001600160e01b031916630a85bd0160e11b149050610ddb565b506001949350505050565b60006001600160e01b031982166380ac58cd60e01b14806116c257506001600160e01b03198216635b5e139f60e01b145b8061041657506301ffc9a760e01b6001600160e01b0319831614610416565b600060016116ee8461094e565b6116f89190611f2e565b60008381526007602052604090205490915080821461174b576001600160a01b03841660009081526006602090815260408083208584528252808320548484528184208190558352600790915290208190555b5060009182526007602090815260408084208490556001600160a01b039094168352600681528383209183525290812055565b60085460009061179090600190611f2e565b600083815260096020526040812054600880549394509092849081106117b8576117b8611e1b565b9060005260206000200154905080600883815481106117d9576117d9611e1b565b60009182526020808320909101929092558281526009909152604080822084905585825281205560088054806118115761181161210d565b6001900381819060005260206000200160009055905550505050565b60006118388361094e565b6001600160a01b039093166000908152600660209081526040808320868452825280832085905593825260079052919091209190915550565b6001600160a01b0382166118c75760405162461bcd60e51b815260206004820181905260248201527f4552433732313a206d696e7420746f20746865207a65726f20616464726573736044820152606401610523565b6000818152600260205260409020546001600160a01b03161561192c5760405162461bcd60e51b815260206004820152601c60248201527f4552433732313a20746f6b656e20616c7265616479206d696e746564000000006044820152606401610523565b611938600083836112f6565b6001600160a01b0382166000908152600360205260408120805460019290611961908490611f45565b909155505060008181526002602052604080822080546001600160a01b0319166001600160a01b03861690811790915590518392907fddf252ad1be2c89b69c2b068fc378daa952ba7f163c4a11628f55a4df523b3ef908290a45050565b8280546119cb90611d8f565b90600052602060002090601f0160209004810192826119ed5760008555611a33565b82601f10611a0657805160ff1916838001178555611a33565b82800160010185558215611a33579182015b82811115611a33578251825591602001919060010190611a18565b50611a3f929150611a43565b5090565b5b80821115611a3f5760008155600101611a44565b6001600160e01b03198116811461082257600080fd5b600060208284031215611a8057600080fd5b813561154a81611a58565b60005b83811015611aa6578181015183820152602001611a8e565b83811115610b065750506000910152565b60008151808452611acf816020860160208601611a8b565b601f01601f19169290920160200192915050565b60208152600061154a6020830184611ab7565b600060208284031215611b0857600080fd5b5035919050565b80356001600160a01b0381168114611b2657600080fd5b919050565b60008060408385031215611b3e57600080fd5b611b4783611b0f565b946020939093013593505050565b600080600060608486031215611b6a57600080fd5b611b7384611b0f565b9250611b8160208501611b0f565b9150604084013590509250925092565b60008060408385031215611ba457600080fd5b82359150611bb460208401611b0f565b90509250929050565b634e487b7160e01b600052604160045260246000fd5b600067ffffffffffffffff80841115611bee57611bee611bbd565b604051601f8501601f19908116603f01168101908282118183101715611c1657611c16611bbd565b81604052809350858152868686011115611c2f57600080fd5b858560208301376000602087830101525050509392505050565b600060208284031215611c5b57600080fd5b813567ffffffffffffffff811115611c7257600080fd5b8201601f81018413611c8357600080fd5b610ddb84823560208401611bd3565b600060208284031215611ca457600080fd5b61154a82611b0f565b60008060408385031215611cc057600080fd5b611cc983611b0f565b915060208301358015158114611cde57600080fd5b809150509250929050565b60008060008060808587031215611cff57600080fd5b611d0885611b0f565b9350611d1660208601611b0f565b925060408501359150606085013567ffffffffffffffff811115611d3957600080fd5b8501601f81018713611d4a57600080fd5b611d5987823560208401611bd3565b91505092959194509250565b60008060408385031215611d7857600080fd5b611d8183611b0f565b9150611bb460208401611b0f565b600181811c90821680611da357607f821691505b60208210811415611dc457634e487b7160e01b600052602260045260246000fd5b50919050565b60208082526031908201527f4552433732313a207472616e736665722063616c6c6572206973206e6f74206f6040820152701ddb995c881b9bdc88185c1c1c9bdd9959607a1b606082015260800190565b634e487b7160e01b600052603260045260246000fd5b60008151611e43818560208601611a8b565b9290920192915050565b600080845481600182811c915080831680611e6957607f831692505b6020808410821415611e8957634e487b7160e01b86526022600452602486fd5b818015611e9d5760018114611eae57611edb565b60ff19861689528489019650611edb565b60008b81526020902060005b86811015611ed35781548b820152908501908301611eba565b505084890196505b505050505050611f0f611efe611ef883602f60f81b815260010190565b86611e31565b64173539b7b760d91b815260050190565b95945050505050565b634e487b7160e01b600052601160045260246000fd5b600082821015611f4057611f40611f18565b500390565b60008219821115611f5857611f58611f18565b500190565b7f416363657373436f6e74726f6c3a206163636f756e7420000000000000000000815260008351611f95816017850160208801611a8b565b7001034b99036b4b9b9b4b733903937b6329607d1b6017918401918201528351611fc6816028840160208801611a8b565b01602801949350505050565b60208082526032908201527f4552433732313a207472616e7366657220746f206e6f6e20455243373231526560408201527131b2b4bb32b91034b6b83632b6b2b73a32b960711b606082015260800190565b600060001982141561203857612038611f18565b5060010190565b634e487b7160e01b600052601260045260246000fd5b6000826120645761206461203f565b500490565b6000826120785761207861203f565b500690565b600081600019048311821515161561209757612097611f18565b500290565b6000816120ab576120ab611f18565b506000190190565b6001600160a01b03858116825284166020820152604081018390526080606082018190526000906120e690830184611ab7565b9695505050505050565b60006020828403121561210257600080fd5b815161154a81611a58565b634e487b7160e01b600052603160045260246000fdfea2646970667358221220ed6a8be7e9320bbf8d41041ce6a8c89b5278a286d06a0ac3f34cd5178791d14f64736f6c63430008090033",
  "devdoc": {
    "author": "OnBridge IO team*",
    "kind": "dev",
    "methods": {
      "approve(address,uint256)": {
        "details": "See {IERC721-approve}."
      },
      "balanceOf(address)": {
        "details": "See {IERC721-balanceOf}."
      },
      "burn(uint256)": {
        "details": "Destroys a token from the msg.sender address",
        "params": {
          "id": "the id of token to be destroyed"
        }
      },
      "getApproved(uint256)": {
        "details": "See {IERC721-getApproved}."
      },
      "getRoleAdmin(bytes32)": {
        "details": "Returns the admin role that controls `role`. See {grantRole} and {revokeRole}. To change a role's admin, use {_setRoleAdmin}."
      },
      "grantRole(bytes32,address)": {
        "details": "Grants `role` to `account`. If `account` had not been already granted `role`, emits a {RoleGranted} event. Requirements: - the caller must have ``role``'s admin role."
      },
      "hasRole(bytes32,address)": {
        "details": "Returns `true` if `account` has been granted `role`."
      },
      "isApprovedForAll(address,address)": {
        "details": "See {IERC721-isApprovedForAll}."
      },
      "mint(address,uint256)": {
        "details": "Mints a specific token (with known id) to the given address",
        "params": {
          "mintIndex": "the tokenId to mint",
          "to": "the receiver"
        }
      },
      "name()": {
        "details": "See {IERC721Metadata-name}."
      },
      "ownerOf(uint256)": {
        "details": "See {IERC721-ownerOf}."
      },
      "renounceRole(bytes32,address)": {
        "details": "Revokes `role` from the calling account. Roles are often managed via {grantRole} and {revokeRole}: this function's purpose is to provide a mechanism for accounts to lose their privileges if they are compromised (such as when a trusted device is misplaced). If the calling account had been granted `role`, emits a {RoleRevoked} event. Requirements: - the caller must be `account`."
      },
      "revokeRole(bytes32,address)": {
        "details": "Revokes `role` from `account`. If `account` had been granted `role`, emits a {RoleRevoked} event. Requirements: - the caller must have ``role``'s admin role."
      },
      "safeTransferFrom(address,address,uint256)": {
        "details": "See {IERC721-safeTransferFrom}."
      },
      "safeTransferFrom(address,address,uint256,bytes)": {
        "details": "See {IERC721-safeTransferFrom}."
      },
      "setApprovalForAll(address,bool)": {
        "details": "See {IERC721-setApprovalForAll}."
      },
      "setDefaultUri(string)": {
        "details": "Set defaultUri"
      },
      "supportsInterface(bytes4)": {
        "details": "See {IERC165-supportsInterface}."
      },
      "symbol()": {
        "details": "See {IERC721Metadata-symbol}."
      },
      "tokenByIndex(uint256)": {
        "details": "See {IERC721Enumerable-tokenByIndex}."
      },
      "tokenOfOwnerByIndex(address,uint256)": {
        "details": "See {IERC721Enumerable-tokenOfOwnerByIndex}."
      },
      "tokenURI(uint256)": {
        "details": "IPFS address that stores JSON with token attributes",
        "params": {
          "tokenId": "id of the token"
        },
        "returns": {
          "_0": "string with ipfs address to json with token attribute or URI for default token if token doesn`t exist"
        }
      },
      "totalSupply()": {
        "details": "See {IERC721Enumerable-totalSupply}."
      },
      "transferFrom(address,address,uint256)": {
        "details": "See {IERC721-transferFrom}."
      }
    },
    "title": "L2Token",
    "version": 1
  },
  "userdoc": {
    "kind": "user",
    "methods": {},
    "version": 1
  },
  "storageLayout": {
    "storage": [
      {
        "astId": 405,
        "contract": "contracts/L2Token.sol:L2Token",
        "label": "_name",
        "offset": 0,
        "slot": "0",
        "type": "t_string_storage"
      },
      {
        "astId": 407,
        "contract": "contracts/L2Token.sol:L2Token",
        "label": "_symbol",
        "offset": 0,
        "slot": "1",
        "type": "t_string_storage"
      },
      {
        "astId": 411,
        "contract": "contracts/L2Token.sol:L2Token",
        "label": "_owners",
        "offset": 0,
        "slot": "2",
        "type": "t_mapping(t_uint256,t_address)"
      },
      {
        "astId": 415,
        "contract": "contracts/L2Token.sol:L2Token",
        "label": "_balances",
        "offset": 0,
        "slot": "3",
        "type": "t_mapping(t_address,t_uint256)"
      },
      {
        "astId": 419,
        "contract": "contracts/L2Token.sol:L2Token",
        "label": "_tokenApprovals",
        "offset": 0,
        "slot": "4",
        "type": "t_mapping(t_uint256,t_address)"
      },
      {
        "astId": 425,
        "contract": "contracts/L2Token.sol:L2Token",
        "label": "_operatorApprovals",
        "offset": 0,
        "slot": "5",
        "type": "t_mapping(t_address,t_mapping(t_address,t_bool))"
      },
      {
        "astId": 1344,
        "contract": "contracts/L2Token.sol:L2Token",
        "label": "_ownedTokens",
        "offset": 0,
        "slot": "6",
        "type": "t_mapping(t_address,t_mapping(t_uint256,t_uint256))"
      },
      {
        "astId": 1348,
        "contract": "contracts/L2Token.sol:L2Token",
        "label": "_ownedTokensIndex",
        "offset": 0,
        "slot": "7",
        "type": "t_mapping(t_uint256,t_uint256)"
      },
      {
        "astId": 1351,
        "contract": "contracts/L2Token.sol:L2Token",
        "label": "_allTokens",
        "offset": 0,
        "slot": "8",
        "type": "t_array(t_uint256)dyn_storage"
      },
      {
        "astId": 1355,
        "contract": "contracts/L2Token.sol:L2Token",
        "label": "_allTokensIndex",
        "offset": 0,
        "slot": "9",
        "type": "t_mapping(t_uint256,t_uint256)"
      },
      {
        "astId": 24,
        "contract": "contracts/L2Token.sol:L2Token",
        "label": "_roles",
        "offset": 0,
        "slot": "10",
        "type": "t_mapping(t_bytes32,t_struct(RoleData)19_storage)"
      },
      {
        "astId": 2767,
        "contract": "contracts/L2Token.sol:L2Token",
        "label": "defaultUri",
        "offset": 0,
        "slot": "11",
        "type": "t_string_storage"
      }
    ],
    "types": {
      "t_address": {
        "encoding": "inplace",
        "label": "address",
        "numberOfBytes": "20"
      },
      "t_array(t_uint256)dyn_storage": {
        "base": "t_uint256",
        "encoding": "dynamic_array",
        "label": "uint256[]",
        "numberOfBytes": "32"
      },
      "t_bool": {
        "encoding": "inplace",
        "label": "bool",
        "numberOfBytes": "1"
      },
      "t_bytes32": {
        "encoding": "inplace",
        "label": "bytes32",
        "numberOfBytes": "32"
      },
      "t_mapping(t_address,t_bool)": {
        "encoding": "mapping",
        "key": "t_address",
        "label": "mapping(address => bool)",
        "numberOfBytes": "32",
        "value": "t_bool"
      },
      "t_mapping(t_address,t_mapping(t_address,t_bool))": {
        "encoding": "mapping",
        "key": "t_address",
        "label": "mapping(address => mapping(address => bool))",
        "numberOfBytes": "32",
        "value": "t_mapping(t_address,t_bool)"
      },
      "t_mapping(t_address,t_mapping(t_uint256,t_uint256))": {
        "encoding": "mapping",
        "key": "t_address",
        "label": "mapping(address => mapping(uint256 => uint256))",
        "numberOfBytes": "32",
        "value": "t_mapping(t_uint256,t_uint256)"
      },
      "t_mapping(t_address,t_uint256)": {
        "encoding": "mapping",
        "key": "t_address",
        "label": "mapping(address => uint256)",
        "numberOfBytes": "32",
        "value": "t_uint256"
      },
      "t_mapping(t_bytes32,t_struct(RoleData)19_storage)": {
        "encoding": "mapping",
        "key": "t_bytes32",
        "label": "mapping(bytes32 => struct AccessControl.RoleData)",
        "numberOfBytes": "32",
        "value": "t_struct(RoleData)19_storage"
      },
      "t_mapping(t_uint256,t_address)": {
        "encoding": "mapping",
        "key": "t_uint256",
        "label": "mapping(uint256 => address)",
        "numberOfBytes": "32",
        "value": "t_address"
      },
      "t_mapping(t_uint256,t_uint256)": {
        "encoding": "mapping",
        "key": "t_uint256",
        "label": "mapping(uint256 => uint256)",
        "numberOfBytes": "32",
        "value": "t_uint256"
      },
      "t_string_storage": {
        "encoding": "bytes",
        "label": "string",
        "numberOfBytes": "32"
      },
      "t_struct(RoleData)19_storage": {
        "encoding": "inplace",
        "label": "struct AccessControl.RoleData",
        "members": [
          {
            "astId": 16,
            "contract": "contracts/L2Token.sol:L2Token",
            "label": "members",
            "offset": 0,
            "slot": "0",
            "type": "t_mapping(t_address,t_bool)"
          },
          {
            "astId": 18,
            "contract": "contracts/L2Token.sol:L2Token",
            "label": "adminRole",
            "offset": 0,
            "slot": "1",
            "type": "t_bytes32"
          }
        ],
        "numberOfBytes": "64"
      },
      "t_uint256": {
        "encoding": "inplace",
        "label": "uint256",
        "numberOfBytes": "32"
      }
    }
  }
}