{
  "address": "0xF6C9DaF74f99388c2C666b0468a9f1D1601c0013",
  "abi": [
    {
      "inputs": [
        {
          "internalType": "contract IERC721",
          "name": "_l1Token",
          "type": "address"
        },
        {
          "internalType": "contract IERC721Bridged",
          "name": "_l2Token",
          "type": "address"
        },
        {
          "internalType": "contract IDeBridgeGate",
          "name": "_deBridgeGate",
          "type": "address"
        }
      ],
      "stateMutability": "nonpayable",
      "type": "constructor"
    },
    {
      "inputs": [],
      "name": "AddressAlreadyAdded",
      "type": "error"
    },
    {
      "inputs": [],
      "name": "AdminBadRole",
      "type": "error"
    },
    {
      "inputs": [],
      "name": "CallProxyBadRole",
      "type": "error"
    },
    {
      "inputs": [],
      "name": "ChainToIsNotSupported",
      "type": "error"
    },
    {
      "inputs": [
        {
          "internalType": "bytes",
          "name": "nativeSender",
          "type": "bytes"
        },
        {
          "internalType": "uint256",
          "name": "chainIdFrom",
          "type": "uint256"
        }
      ],
      "name": "NativeSenderBadRole",
      "type": "error"
    },
    {
      "inputs": [],
      "name": "RemovingMissingAddress",
      "type": "error"
    },
    {
      "anonymous": false,
      "inputs": [
        {
          "indexed": false,
          "internalType": "address",
          "name": "newAddress",
          "type": "address"
        },
        {
          "indexed": false,
          "internalType": "uint256",
          "name": "chainIdTo",
          "type": "uint256"
        }
      ],
      "name": "ContractAddressOnChainIdUpdated",
      "type": "event"
    },
    {
      "anonymous": false,
      "inputs": [
        {
          "indexed": false,
          "internalType": "bytes",
          "name": "nativeSender",
          "type": "bytes"
        },
        {
          "indexed": false,
          "internalType": "uint256",
          "name": "chainIdFrom",
          "type": "uint256"
        },
        {
          "indexed": false,
          "internalType": "bool",
          "name": "enabled",
          "type": "bool"
        }
      ],
      "name": "ControllingAddressUpdated",
      "type": "event"
    },
    {
      "anonymous": false,
      "inputs": [
        {
          "indexed": true,
          "internalType": "address",
          "name": "l1Token",
          "type": "address"
        },
        {
          "indexed": true,
          "internalType": "string",
          "name": "_l1Tx",
          "type": "string"
        },
        {
          "indexed": true,
          "internalType": "address",
          "name": "_to",
          "type": "address"
        },
        {
          "indexed": false,
          "internalType": "uint256",
          "name": "_id",
          "type": "uint256"
        }
      ],
      "name": "DepositFinalized",
      "type": "event"
    },
    {
      "anonymous": false,
      "inputs": [
        {
          "indexed": false,
          "internalType": "address",
          "name": "account",
          "type": "address"
        }
      ],
      "name": "Paused",
      "type": "event"
    },
    {
      "anonymous": false,
      "inputs": [
        {
          "indexed": true,
          "internalType": "bytes32",
          "name": "role",
          "type": "bytes32"
        },
        {
          "indexed": true,
          "internalType": "bytes32",
          "name": "previousAdminRole",
          "type": "bytes32"
        },
        {
          "indexed": true,
          "internalType": "bytes32",
          "name": "newAdminRole",
          "type": "bytes32"
        }
      ],
      "name": "RoleAdminChanged",
      "type": "event"
    },
    {
      "anonymous": false,
      "inputs": [
        {
          "indexed": true,
          "internalType": "bytes32",
          "name": "role",
          "type": "bytes32"
        },
        {
          "indexed": true,
          "internalType": "address",
          "name": "account",
          "type": "address"
        },
        {
          "indexed": true,
          "internalType": "address",
          "name": "sender",
          "type": "address"
        }
      ],
      "name": "RoleGranted",
      "type": "event"
    },
    {
      "anonymous": false,
      "inputs": [
        {
          "indexed": true,
          "internalType": "bytes32",
          "name": "role",
          "type": "bytes32"
        },
        {
          "indexed": true,
          "internalType": "address",
          "name": "account",
          "type": "address"
        },
        {
          "indexed": true,
          "internalType": "address",
          "name": "sender",
          "type": "address"
        }
      ],
      "name": "RoleRevoked",
      "type": "event"
    },
    {
      "anonymous": false,
      "inputs": [
        {
          "indexed": false,
          "internalType": "address",
          "name": "account",
          "type": "address"
        }
      ],
      "name": "Unpaused",
      "type": "event"
    },
    {
      "anonymous": false,
      "inputs": [
        {
          "indexed": false,
          "internalType": "address",
          "name": "l1Token",
          "type": "address"
        },
        {
          "indexed": true,
          "internalType": "address",
          "name": "_from",
          "type": "address"
        },
        {
          "indexed": true,
          "internalType": "address",
          "name": "_to",
          "type": "address"
        },
        {
          "indexed": false,
          "internalType": "uint256",
          "name": "_id",
          "type": "uint256"
        }
      ],
      "name": "WithdrawalInitiated",
      "type": "event"
    },
    {
      "inputs": [],
      "name": "DEFAULT_ADMIN_ROLE",
      "outputs": [
        {
          "internalType": "bytes32",
          "name": "",
          "type": "bytes32"
        }
      ],
      "stateMutability": "view",
      "type": "function"
    },
    {
      "inputs": [
        {
          "internalType": "bytes",
          "name": "_nativeSender",
          "type": "bytes"
        },
        {
          "internalType": "uint256",
          "name": "_chainIdFrom",
          "type": "uint256"
        }
      ],
      "name": "addControllingAddress",
      "outputs": [],
      "stateMutability": "nonpayable",
      "type": "function"
    },
    {
      "inputs": [
        {
          "internalType": "uint256",
          "name": "",
          "type": "uint256"
        }
      ],
      "name": "chainIdToContractAddress",
      "outputs": [
        {
          "internalType": "address",
          "name": "",
          "type": "address"
        }
      ],
      "stateMutability": "view",
      "type": "function"
    },
    {
      "inputs": [],
      "name": "deBridgeGate",
      "outputs": [
        {
          "internalType": "contract IDeBridgeGate",
          "name": "",
          "type": "address"
        }
      ],
      "stateMutability": "view",
      "type": "function"
    },
    {
      "inputs": [
        {
          "internalType": "address",
          "name": "_to",
          "type": "address"
        },
        {
          "internalType": "string",
          "name": "_l1Tx",
          "type": "string"
        },
        {
          "internalType": "uint256",
          "name": "_id",
          "type": "uint256"
        }
      ],
      "name": "finalizeInboundTransfer",
      "outputs": [],
      "stateMutability": "nonpayable",
      "type": "function"
    },
    {
      "inputs": [],
      "name": "getChainId",
      "outputs": [
        {
          "internalType": "uint256",
          "name": "cid",
          "type": "uint256"
        }
      ],
      "stateMutability": "view",
      "type": "function"
    },
    {
      "inputs": [
        {
          "internalType": "uint256",
          "name": "_chainId",
          "type": "uint256"
        },
        {
          "internalType": "address",
          "name": "_tokenAddress",
          "type": "address"
        }
      ],
      "name": "getDebridgeId",
      "outputs": [
        {
          "internalType": "bytes32",
          "name": "",
          "type": "bytes32"
        }
      ],
      "stateMutability": "pure",
      "type": "function"
    },
    {
      "inputs": [
        {
          "internalType": "bytes32",
          "name": "role",
          "type": "bytes32"
        }
      ],
      "name": "getRoleAdmin",
      "outputs": [
        {
          "internalType": "bytes32",
          "name": "",
          "type": "bytes32"
        }
      ],
      "stateMutability": "view",
      "type": "function"
    },
    {
      "inputs": [
        {
          "internalType": "bytes32",
          "name": "role",
          "type": "bytes32"
        },
        {
          "internalType": "address",
          "name": "account",
          "type": "address"
        }
      ],
      "name": "grantRole",
      "outputs": [],
      "stateMutability": "nonpayable",
      "type": "function"
    },
    {
      "inputs": [
        {
          "internalType": "bytes32",
          "name": "role",
          "type": "bytes32"
        },
        {
          "internalType": "address",
          "name": "account",
          "type": "address"
        }
      ],
      "name": "hasRole",
      "outputs": [
        {
          "internalType": "bool",
          "name": "",
          "type": "bool"
        }
      ],
      "stateMutability": "view",
      "type": "function"
    },
    {
      "inputs": [
        {
          "internalType": "uint256",
          "name": "",
          "type": "uint256"
        },
        {
          "internalType": "bytes",
          "name": "",
          "type": "bytes"
        }
      ],
      "name": "isAddressFromChainIdControlling",
      "outputs": [
        {
          "internalType": "bool",
          "name": "",
          "type": "bool"
        }
      ],
      "stateMutability": "view",
      "type": "function"
    },
    {
      "inputs": [
        {
          "internalType": "bytes",
          "name": "_nativeSender",
          "type": "bytes"
        },
        {
          "internalType": "uint256",
          "name": "_chainIdFrom",
          "type": "uint256"
        }
      ],
      "name": "isControllingAddress",
      "outputs": [
        {
          "internalType": "bool",
          "name": "",
          "type": "bool"
        }
      ],
      "stateMutability": "view",
      "type": "function"
    },
    {
      "inputs": [],
      "name": "l1Token",
      "outputs": [
        {
          "internalType": "contract IERC721",
          "name": "",
          "type": "address"
        }
      ],
      "stateMutability": "view",
      "type": "function"
    },
    {
      "inputs": [],
      "name": "l2Token",
      "outputs": [
        {
          "internalType": "contract IERC721Bridged",
          "name": "",
          "type": "address"
        }
      ],
      "stateMutability": "view",
      "type": "function"
    },
    {
      "inputs": [
        {
          "internalType": "address",
          "name": "_to",
          "type": "address"
        },
        {
          "internalType": "uint256",
          "name": "_id",
          "type": "uint256"
        },
        {
          "internalType": "uint256",
          "name": "_chainIdTo",
          "type": "uint256"
        },
        {
          "internalType": "address",
          "name": "_fallback",
          "type": "address"
        },
        {
          "internalType": "uint256",
          "name": "_executionFee",
          "type": "uint256"
        }
      ],
      "name": "outboundTransfer",
      "outputs": [],
      "stateMutability": "payable",
      "type": "function"
    },
    {
      "inputs": [],
      "name": "pause",
      "outputs": [],
      "stateMutability": "nonpayable",
      "type": "function"
    },
    {
      "inputs": [],
      "name": "paused",
      "outputs": [
        {
          "internalType": "bool",
          "name": "",
          "type": "bool"
        }
      ],
      "stateMutability": "view",
      "type": "function"
    },
    {
      "inputs": [
        {
          "internalType": "bytes",
          "name": "_nativeSender",
          "type": "bytes"
        },
        {
          "internalType": "uint256",
          "name": "_chainIdFrom",
          "type": "uint256"
        }
      ],
      "name": "removeControllingAddress",
      "outputs": [],
      "stateMutability": "nonpayable",
      "type": "function"
    },
    {
      "inputs": [
        {
          "internalType": "bytes32",
          "name": "role",
          "type": "bytes32"
        },
        {
          "internalType": "address",
          "name": "account",
          "type": "address"
        }
      ],
      "name": "renounceRole",
      "outputs": [],
      "stateMutability": "nonpayable",
      "type": "function"
    },
    {
      "inputs": [
        {
          "internalType": "bytes32",
          "name": "role",
          "type": "bytes32"
        },
        {
          "internalType": "address",
          "name": "account",
          "type": "address"
        }
      ],
      "name": "revokeRole",
      "outputs": [],
      "stateMutability": "nonpayable",
      "type": "function"
    },
    {
      "inputs": [
        {
          "internalType": "address",
          "name": "_address",
          "type": "address"
        },
        {
          "internalType": "uint256",
          "name": "_chainIdTo",
          "type": "uint256"
        }
      ],
      "name": "setContractAddressOnChainId",
      "outputs": [],
      "stateMutability": "nonpayable",
      "type": "function"
    },
    {
      "inputs": [
        {
          "internalType": "bytes4",
          "name": "interfaceId",
          "type": "bytes4"
        }
      ],
      "name": "supportsInterface",
      "outputs": [
        {
          "internalType": "bool",
          "name": "",
          "type": "bool"
        }
      ],
      "stateMutability": "view",
      "type": "function"
    },
    {
      "inputs": [],
      "name": "unpause",
      "outputs": [],
      "stateMutability": "nonpayable",
      "type": "function"
    },
    {
      "inputs": [],
      "name": "version",
      "outputs": [
        {
          "internalType": "uint256",
          "name": "",
          "type": "uint256"
        }
      ],
      "stateMutability": "pure",
      "type": "function"
    }
  ],
  "transactionHash": "0x1c92910eeec16fd8cc294bafa1fd65faec72906a1262c447f1a285ee2720c138",
  "args": [
    "0xe6847645B1832B2923e5938ec482f2b0EfA6DE4c",
    "0xc303c254529542bfCbCCE275Bb8c819fD8fFdb03",
    "0x68D936Cb4723BdD38C488FD50514803f96789d2D"
  ],
  "solcInputHash": "9f3def146569bfefe4ca0c2bc30349b0",
  "bytecode": "0x60806040523480156200001157600080fd5b5060405162001c6138038062001c6183398101604081905262000034916200022e565b6001600160a01b0383166200007d5760405162461bcd60e51b815260206004820152600a6024820152692d22a927afaa27a5a2a760b11b60448201526064015b60405180910390fd5b6001600160a01b038216620000c25760405162461bcd60e51b815260206004820152600a6024820152692d22a927afaa27a5a2a760b11b604482015260640162000074565b6001600160a01b0381166200010e5760405162461bcd60e51b81526020600482015260116024820152705a45524f5f44454252494447454741544560781b604482015260640162000074565b60cc80546001600160a01b038086166001600160a01b03199283161790925560cd805485841690831617905560c98054928416929091169190911790556200015860003362000161565b50505062000282565b6200016d828262000171565b5050565b60008281526065602090815260408083206001600160a01b038516845290915290205460ff166200016d5760008281526065602090815260408083206001600160a01b03851684529091529020805460ff19166001179055620001d13390565b6001600160a01b0316816001600160a01b0316837f2f8788117e7eff1d82e926ec794901d17c78024a50270940304540a733656f0d60405160405180910390a45050565b6001600160a01b03811681146200022b57600080fd5b50565b6000806000606084860312156200024457600080fd5b8351620002518162000215565b6020850151909350620002648162000215565b6040850151909250620002778162000215565b809150509250925092565b6119cf80620002926000396000f3fe60806040526004361061014b5760003560e01c80635c975abb116100b6578063a217fddf1161006f578063a217fddf146103c5578063c01e1bd6146103da578063ca777fbf146103fa578063cb0592941461041a578063d547741f14610450578063d72ce90e1461047057600080fd5b80635c975abb146103185780636586f26b146103305780638456cb591461035057806391d14854146103655780639682b90914610385578063a00461aa146103a557600080fd5b80633408e470116101085780633408e4701461026457806336568abe146102775780633f4ba83a146102975780635062a2b0146102ac57806354fd4d50146102cc57806356eff267146102e057600080fd5b806301ffc9a71461015057806306702db014610185578063248a9ca31461019a5780632c13e57c146101d85780632f2ff15d146101f857806330a37ce714610218575b600080fd5b34801561015c57600080fd5b5061017061016b36600461136a565b610490565b60405190151581526020015b60405180910390f35b6101986101933660046113ac565b6104c7565b005b3480156101a657600080fd5b506101ca6101b53660046113fe565b60009081526065602052604090206001015490565b60405190815260200161017c565b3480156101e457600080fd5b506101986101f33660046114e4565b6107f5565b34801561020457600080fd5b50610198610213366004611529565b6108ed565b34801561022457600080fd5b50610170610233366004611559565b60ca602090815260009283526040909220815180830184018051928152908401929093019190912091525460ff1681565b34801561027057600080fd5b50466101ca565b34801561028357600080fd5b50610198610292366004611529565b610918565b3480156102a357600080fd5b50610198610996565b3480156102b857600080fd5b506101706102c73660046114e4565b6109c8565b3480156102d857600080fd5b5060656101ca565b3480156102ec57600080fd5b5060cd54610300906001600160a01b031681565b6040516001600160a01b03909116815260200161017c565b34801561032457600080fd5b5060975460ff16610170565b34801561033c57600080fd5b5061019861034b3660046115a0565b6109ff565b34801561035c57600080fd5b50610198610a88565b34801561037157600080fd5b50610170610380366004611529565b610ab8565b34801561039157600080fd5b506101ca6103a0366004611529565b610ae3565b3480156103b157600080fd5b506101986103c03660046114e4565b610b2c565b3480156103d157600080fd5b506101ca600081565b3480156103e657600080fd5b5060cc54610300906001600160a01b031681565b34801561040657600080fd5b5060c954610300906001600160a01b031681565b34801561042657600080fd5b506103006104353660046113fe565b60cb602052600090815260409020546001600160a01b031681565b34801561045c57600080fd5b5061019861046b366004611529565b610c10565b34801561047c57600080fd5b5061019861048b3660046115cc565b610c36565b60006001600160e01b03198216637965db0b60e01b14806104c157506301ffc9a760e01b6001600160e01b03198316145b92915050565b60975460ff16156104f35760405162461bcd60e51b81526004016104ea90611639565b60405180910390fd5b600083815260cb60205260409020546001600160a01b03168061052957604051634325fa6b60e11b815260040160405180910390fd5b60cd546040516323b872dd60e01b8152336004820152306024820152604481018790526001600160a01b03909116906323b872dd90606401600060405180830381600087803b15801561057b57600080fd5b505af115801561058f573d6000803e3d6000fd5b505060cd54604051630852cd8d60e31b8152600481018990526001600160a01b0390911692506342966c689150602401600060405180830381600087803b1580156105d957600080fd5b505af11580156105ed573d6000803e3d6000fd5b505060cc54604080516001600160a01b039283168152602081018a9052918a1693503392507f2fc3848834aac8e883a2d2a17a7514dc4f2d3dd268089df9b9f5d918259ef3b0910160405180910390a36106686040518060800160405280600081526020016000815260200160608152602001606081525090565b602081015161067990600180610f6e565b6020820181905261068d9060026001610f6e565b6020828101919091528382526040516001600160601b0319606087901b169181019190915260340160408051601f1981840301815291815282810191909152516001600160a01b038816602482015260606044820152600060848201526064810187905260a40160408051601f19818403018152918152602080830180516001600160e01b0316636b96748760e11b179052606084019290925260c95490516001600160a01b039091169163be29747691349160009183918b91610766918a910160609190911b6001600160601b031916815260140190565b6040516020818303038152906040526000808960405160200161078991906116bf565b6040516020818303038152906040526040518963ffffffff1660e01b81526004016107ba9796959493929190611715565b6000604051808303818588803b1580156107d357600080fd5b505af11580156107e7573d6000803e3d6000fd5b505050505050505050505050565b610800600033610ab8565b61081d57604051636f4720fd60e11b815260040160405180910390fd5b600081815260ca602052604090819020905161083a90849061178b565b9081526040519081900360200190205460ff161561086b57604051631b42558760e21b815260040160405180910390fd5b600160ca60008381526020019081526020016000208360405161088e919061178b565b908152604051908190036020018120805492151560ff19909316929092179091557f75444ea1b32c6bc7d5884fdd431cab59bc347958a5a88eb42c31b1cd833f4c79906108e190849084906001906117a7565b60405180910390a15050565b6000828152606560205260409020600101546109098133610f92565b6109138383610ff6565b505050565b6001600160a01b03811633146109885760405162461bcd60e51b815260206004820152602f60248201527f416363657373436f6e74726f6c3a2063616e206f6e6c792072656e6f756e636560448201526e103937b632b9903337b91039b2b63360891b60648201526084016104ea565b610992828261107c565b5050565b6109a1600033610ab8565b6109be57604051636f4720fd60e11b815260040160405180910390fd5b6109c66110e3565b565b600081815260ca602052604080822090516109e490859061178b565b9081526040519081900360200190205460ff16905092915050565b610a0a600033610ab8565b610a2757604051636f4720fd60e11b815260040160405180910390fd5b600081815260cb602090815260409182902080546001600160a01b0319166001600160a01b03861690811790915582519081529081018390527f97eb0846ca97e409f9879b45a795fe55abf0dabdcf54c2bc4eaa07c14221195a91016108e1565b610a93600033610ab8565b610ab057604051636f4720fd60e11b815260040160405180910390fd5b6109c6611176565b60009182526065602090815260408084206001600160a01b0393909316845291905290205460ff1690565b60008282604051602001610b0e92919091825260601b6001600160601b031916602082015260340190565b60405160208183030381529060405280519060200120905092915050565b610b37600033610ab8565b610b5457604051636f4720fd60e11b815260040160405180910390fd5b600081815260ca6020526040908190209051610b7190849061178b565b9081526040519081900360200190205460ff16610ba1576040516336a2b46360e11b815260040160405180910390fd5b600081815260ca60205260408082209051610bbd90859061178b565b908152604051908190036020018120805492151560ff19909316929092179091557f75444ea1b32c6bc7d5884fdd431cab59bc347958a5a88eb42c31b1cd833f4c79906108e190849084906000906117a7565b600082815260656020526040902060010154610c2c8133610f92565b610913838361107c565b60c95460408051630b69a22b60e21b815290516000926001600160a01b031691632da688ac916004808301926020929190829003018186803b158015610c7b57600080fd5b505afa158015610c8f573d6000803e3d6000fd5b505050506040513d601f19601f82011682018060405250810190610cb391906117d1565b90506001600160a01b0381163314610cde576040516324439f6760e21b815260040160405180910390fd5b6000816001600160a01b0316632eb484916040518163ffffffff1660e01b8152600401600060405180830381600087803b158015610d1b57600080fd5b505af1158015610d2f573d6000803e3d6000fd5b505050506040513d6000823e601f3d908101601f19168201604052610d5791908101906117ee565b90506000826001600160a01b031663508ab0a06040518163ffffffff1660e01b8152600401602060405180830381600087803b158015610d9657600080fd5b505af1158015610daa573d6000803e3d6000fd5b505050506040513d601f19601f82011682018060405250810190610dce919061185c565b905060ca600082815260200190815260200160002082604051610df1919061178b565b9081526040519081900360200190205460ff16610e25578181604051630792ddd560e11b81526004016104ea929190611875565b60975460ff1615610e485760405162461bcd60e51b81526004016104ea90611639565b6001600160a01b038616610e9e5760405162461bcd60e51b815260206004820181905260248201527f546f6b656e2063616e6e6f7420626520746865207a65726f206164647265737360448201526064016104ea565b60cd546040516340c10f1960e01b81526001600160a01b03888116600483015260248201879052909116906340c10f1990604401600060405180830381600087803b158015610eec57600080fd5b505af1158015610f00573d6000803e3d6000fd5b50505050856001600160a01b031685604051610f1c919061178b565b60405190819003812060cc5487835290916001600160a01b03909116907f446cb21a5a87b0b9b961eb4bb0b800e29accb236e438a2bc207ac4631a40c0959060200160405180910390a4505050505050565b60008115610f8257506001821b8317610f8b565b506001821b1983165b9392505050565b610f9c8282610ab8565b61099257610fb4816001600160a01b031660146111ce565b610fbf8360206111ce565b604051602001610fd0929190611897565b60408051601f198184030181529082905262461bcd60e51b82526104ea9160040161190c565b6110008282610ab8565b6109925760008281526065602090815260408083206001600160a01b03851684529091529020805460ff191660011790556110383390565b6001600160a01b0316816001600160a01b0316837f2f8788117e7eff1d82e926ec794901d17c78024a50270940304540a733656f0d60405160405180910390a45050565b6110868282610ab8565b156109925760008281526065602090815260408083206001600160a01b0385168085529252808320805460ff1916905551339285917ff6391f5c32d9c69d2a47ea670b442974b53935d1edc7fd64eb21e047a839171b9190a45050565b60975460ff1661112c5760405162461bcd60e51b815260206004820152601460248201527314185d5cd8589b194e881b9bdd081c185d5cd95960621b60448201526064016104ea565b6097805460ff191690557f5db9ee0a495bf2e6ff9c91a7834c1ba4fdd244a5e8aa4e537bd38aeae4b073aa335b6040516001600160a01b03909116815260200160405180910390a1565b60975460ff16156111995760405162461bcd60e51b81526004016104ea90611639565b6097805460ff191660011790557f62e78cea01bee320cd4e420270b5ea74000d11b0c9f74754ebdbfc544b05a2586111593390565b606060006111dd836002611935565b6111e8906002611954565b67ffffffffffffffff81111561120057611200611417565b6040519080825280601f01601f19166020018201604052801561122a576020820181803683370190505b509050600360fc1b816000815181106112455761124561196c565b60200101906001600160f81b031916908160001a905350600f60fb1b816001815181106112745761127461196c565b60200101906001600160f81b031916908160001a9053506000611298846002611935565b6112a3906001611954565b90505b600181111561131b576f181899199a1a9b1b9c1cb0b131b232b360811b85600f16601081106112d7576112d761196c565b1a60f81b8282815181106112ed576112ed61196c565b60200101906001600160f81b031916908160001a90535060049490941c9361131481611982565b90506112a6565b508315610f8b5760405162461bcd60e51b815260206004820181905260248201527f537472696e67733a20686578206c656e67746820696e73756666696369656e7460448201526064016104ea565b60006020828403121561137c57600080fd5b81356001600160e01b031981168114610f8b57600080fd5b6001600160a01b03811681146113a957600080fd5b50565b600080600080600060a086880312156113c457600080fd5b85356113cf81611394565b9450602086013593506040860135925060608601356113ed81611394565b949793965091946080013592915050565b60006020828403121561141057600080fd5b5035919050565b634e487b7160e01b600052604160045260246000fd5b604051601f8201601f1916810167ffffffffffffffff8111828210171561145657611456611417565b604052919050565b600067ffffffffffffffff82111561147857611478611417565b50601f01601f191660200190565b60006114996114948461145e565b61142d565b90508281528383830111156114ad57600080fd5b828260208301376000602084830101529392505050565b600082601f8301126114d557600080fd5b610f8b83833560208501611486565b600080604083850312156114f757600080fd5b823567ffffffffffffffff81111561150e57600080fd5b61151a858286016114c4565b95602094909401359450505050565b6000806040838503121561153c57600080fd5b82359150602083013561154e81611394565b809150509250929050565b6000806040838503121561156c57600080fd5b82359150602083013567ffffffffffffffff81111561158a57600080fd5b611596858286016114c4565b9150509250929050565b600080604083850312156115b357600080fd5b82356115be81611394565b946020939093013593505050565b6000806000606084860312156115e157600080fd5b83356115ec81611394565b9250602084013567ffffffffffffffff81111561160857600080fd5b8401601f8101861361161957600080fd5b61162886823560208401611486565b925050604084013590509250925092565b60208082526010908201526f14185d5cd8589b194e881c185d5cd95960821b604082015260600190565b60005b8381101561167e578181015183820152602001611666565b8381111561168d576000848401525b50505050565b600081518084526116ab816020860160208601611663565b601f01601f19169290920160200192915050565b60208152815160208201526020820151604082015260006040830151608060608401526116ef60a0840182611693565b90506060840151601f1984830301608085015261170c8282611693565b95945050505050565b600061010060018060a01b038a16835288602084015287604084015280606084015261174381840188611693565b90508281038060808501526000825286151560a085015263ffffffff861660c08501526020810160e08501525061177d6020820185611693565b9a9950505050505050505050565b6000825161179d818460208701611663565b9190910192915050565b6060815260006117ba6060830186611693565b602083019490945250901515604090910152919050565b6000602082840312156117e357600080fd5b8151610f8b81611394565b60006020828403121561180057600080fd5b815167ffffffffffffffff81111561181757600080fd5b8201601f8101841361182857600080fd5b80516118366114948261145e565b81815285602083850101111561184b57600080fd5b61170c826020830160208601611663565b60006020828403121561186e57600080fd5b5051919050565b6040815260006118886040830185611693565b90508260208301529392505050565b7f416363657373436f6e74726f6c3a206163636f756e74200000000000000000008152600083516118cf816017850160208801611663565b7001034b99036b4b9b9b4b733903937b6329607d1b6017918401918201528351611900816028840160208801611663565b01602801949350505050565b602081526000610f8b6020830184611693565b634e487b7160e01b600052601160045260246000fd5b600081600019048311821515161561194f5761194f61191f565b500290565b600082198211156119675761196761191f565b500190565b634e487b7160e01b600052603260045260246000fd5b6000816119915761199161191f565b50600019019056fea26469706673582212201d554d191a14d8103b5464a2b7ba411144dd0a44fd33f9f888e1e8d0188037df64736f6c63430008090033",
  "devdoc": {
    "author": "OnBridge IO*",
    "details": "This contract deployed on secondary network with Bridged token contract - upon `finalizeInboundTransfer` call from oracle, it mints corresponding amount of tokens on Layer 2 network - upon `outboundTransfer` call from token holder it withdraws and burns L2 the requested token",
    "kind": "dev",
    "methods": {
      "finalizeInboundTransfer(address,string,uint256)": {
        "params": {
          "_id": "Token id being deposited",
          "_l1Tx": "Tx hash of `L1Bridge.outboundTransfer` on L1 side",
          "_to": "L2 address of destination"
        }
      },
      "getChainId()": {
        "details": "Get current chain id"
      },
      "getDebridgeId(uint256,address)": {
        "details": "Calculates asset identifier.",
        "params": {
          "_chainId": "Current chain id.",
          "_tokenAddress": "Address of the asset on the other chain."
        }
      },
      "getRoleAdmin(bytes32)": {
        "details": "Returns the admin role that controls `role`. See {grantRole} and {revokeRole}. To change a role's admin, use {_setRoleAdmin}."
      },
      "grantRole(bytes32,address)": {
        "details": "Grants `role` to `account`. If `account` had not been already granted `role`, emits a {RoleGranted} event. Requirements: - the caller must have ``role``'s admin role."
      },
      "hasRole(bytes32,address)": {
        "details": "Returns `true` if `account` has been granted `role`."
      },
      "outboundTransfer(address,uint256,uint256,address,uint256)": {
        "params": {
          "_id": "Token id being withdrawn",
          "_to": "L1 address of destination"
        }
      },
      "pause()": {
        "details": "Stop all transfers."
      },
      "paused()": {
        "details": "Returns true if the contract is paused, and false otherwise."
      },
      "renounceRole(bytes32,address)": {
        "details": "Revokes `role` from the calling account. Roles are often managed via {grantRole} and {revokeRole}: this function's purpose is to provide a mechanism for accounts to lose their privileges if they are compromised (such as when a trusted device is misplaced). If the calling account had been revoked `role`, emits a {RoleRevoked} event. Requirements: - the caller must be `account`."
      },
      "revokeRole(bytes32,address)": {
        "details": "Revokes `role` from `account`. If `account` had been granted `role`, emits a {RoleRevoked} event. Requirements: - the caller must have ``role``'s admin role."
      },
      "supportsInterface(bytes4)": {
        "details": "See {IERC165-supportsInterface}."
      },
      "unpause()": {
        "details": "Allow transfers."
      }
    },
    "title": "Bridge Layer 2 contract",
    "version": 1
  },
  "userdoc": {
    "kind": "user",
    "methods": {
      "finalizeInboundTransfer(address,string,uint256)": {
        "notice": "Finalizes a deposit from L1 to L2"
      },
      "outboundTransfer(address,uint256,uint256,address,uint256)": {
        "notice": "Initiates a withdrawal from L2 to L1; callable by any tokenholder."
      }
    },
    "version": 1
  },
  "storageLayout": {
    "storage": [
      {
        "astId": 416,
        "contract": "contracts/L2Bridge.sol:L2Bridge",
        "label": "_initialized",
        "offset": 0,
        "slot": "0",
        "type": "t_bool"
      },
      {
        "astId": 419,
        "contract": "contracts/L2Bridge.sol:L2Bridge",
        "label": "_initializing",
        "offset": 1,
        "slot": "0",
        "type": "t_bool"
      },
      {
        "astId": 884,
        "contract": "contracts/L2Bridge.sol:L2Bridge",
        "label": "__gap",
        "offset": 0,
        "slot": "1",
        "type": "t_array(t_uint256)50_storage"
      },
      {
        "astId": 1133,
        "contract": "contracts/L2Bridge.sol:L2Bridge",
        "label": "__gap",
        "offset": 0,
        "slot": "51",
        "type": "t_array(t_uint256)50_storage"
      },
      {
        "astId": 48,
        "contract": "contracts/L2Bridge.sol:L2Bridge",
        "label": "_roles",
        "offset": 0,
        "slot": "101",
        "type": "t_mapping(t_bytes32,t_struct(RoleData)43_storage)"
      },
      {
        "astId": 335,
        "contract": "contracts/L2Bridge.sol:L2Bridge",
        "label": "__gap",
        "offset": 0,
        "slot": "102",
        "type": "t_array(t_uint256)49_storage"
      },
      {
        "astId": 504,
        "contract": "contracts/L2Bridge.sol:L2Bridge",
        "label": "_paused",
        "offset": 0,
        "slot": "151",
        "type": "t_bool"
      },
      {
        "astId": 595,
        "contract": "contracts/L2Bridge.sol:L2Bridge",
        "label": "__gap",
        "offset": 0,
        "slot": "152",
        "type": "t_array(t_uint256)49_storage"
      },
      {
        "astId": 3451,
        "contract": "contracts/L2Bridge.sol:L2Bridge",
        "label": "deBridgeGate",
        "offset": 0,
        "slot": "201",
        "type": "t_contract(IDeBridgeGate)4911"
      },
      {
        "astId": 3458,
        "contract": "contracts/L2Bridge.sol:L2Bridge",
        "label": "isAddressFromChainIdControlling",
        "offset": 0,
        "slot": "202",
        "type": "t_mapping(t_uint256,t_mapping(t_bytes_memory_ptr,t_bool))"
      },
      {
        "astId": 3463,
        "contract": "contracts/L2Bridge.sol:L2Bridge",
        "label": "chainIdToContractAddress",
        "offset": 0,
        "slot": "203",
        "type": "t_mapping(t_uint256,t_address)"
      },
      {
        "astId": 4177,
        "contract": "contracts/L2Bridge.sol:L2Bridge",
        "label": "l1Token",
        "offset": 0,
        "slot": "204",
        "type": "t_contract(IERC721)2458"
      },
      {
        "astId": 4180,
        "contract": "contracts/L2Bridge.sol:L2Bridge",
        "label": "l2Token",
        "offset": 0,
        "slot": "205",
        "type": "t_contract(IERC721Bridged)4168"
      }
    ],
    "types": {
      "t_address": {
        "encoding": "inplace",
        "label": "address",
        "numberOfBytes": "20"
      },
      "t_array(t_uint256)49_storage": {
        "base": "t_uint256",
        "encoding": "inplace",
        "label": "uint256[49]",
        "numberOfBytes": "1568"
      },
      "t_array(t_uint256)50_storage": {
        "base": "t_uint256",
        "encoding": "inplace",
        "label": "uint256[50]",
        "numberOfBytes": "1600"
      },
      "t_bool": {
        "encoding": "inplace",
        "label": "bool",
        "numberOfBytes": "1"
      },
      "t_bytes32": {
        "encoding": "inplace",
        "label": "bytes32",
        "numberOfBytes": "32"
      },
      "t_bytes_memory_ptr": {
        "encoding": "bytes",
        "label": "bytes",
        "numberOfBytes": "32"
      },
      "t_contract(IDeBridgeGate)4911": {
        "encoding": "inplace",
        "label": "contract IDeBridgeGate",
        "numberOfBytes": "20"
      },
      "t_contract(IERC721)2458": {
        "encoding": "inplace",
        "label": "contract IERC721",
        "numberOfBytes": "20"
      },
      "t_contract(IERC721Bridged)4168": {
        "encoding": "inplace",
        "label": "contract IERC721Bridged",
        "numberOfBytes": "20"
      },
      "t_mapping(t_address,t_bool)": {
        "encoding": "mapping",
        "key": "t_address",
        "label": "mapping(address => bool)",
        "numberOfBytes": "32",
        "value": "t_bool"
      },
      "t_mapping(t_bytes32,t_struct(RoleData)43_storage)": {
        "encoding": "mapping",
        "key": "t_bytes32",
        "label": "mapping(bytes32 => struct AccessControlUpgradeable.RoleData)",
        "numberOfBytes": "32",
        "value": "t_struct(RoleData)43_storage"
      },
      "t_mapping(t_bytes_memory_ptr,t_bool)": {
        "encoding": "mapping",
        "key": "t_bytes_memory_ptr",
        "label": "mapping(bytes => bool)",
        "numberOfBytes": "32",
        "value": "t_bool"
      },
      "t_mapping(t_uint256,t_address)": {
        "encoding": "mapping",
        "key": "t_uint256",
        "label": "mapping(uint256 => address)",
        "numberOfBytes": "32",
        "value": "t_address"
      },
      "t_mapping(t_uint256,t_mapping(t_bytes_memory_ptr,t_bool))": {
        "encoding": "mapping",
        "key": "t_uint256",
        "label": "mapping(uint256 => mapping(bytes => bool))",
        "numberOfBytes": "32",
        "value": "t_mapping(t_bytes_memory_ptr,t_bool)"
      },
      "t_struct(RoleData)43_storage": {
        "encoding": "inplace",
        "label": "struct AccessControlUpgradeable.RoleData",
        "members": [
          {
            "astId": 40,
            "contract": "contracts/L2Bridge.sol:L2Bridge",
            "label": "members",
            "offset": 0,
            "slot": "0",
            "type": "t_mapping(t_address,t_bool)"
          },
          {
            "astId": 42,
            "contract": "contracts/L2Bridge.sol:L2Bridge",
            "label": "adminRole",
            "offset": 0,
            "slot": "1",
            "type": "t_bytes32"
          }
        ],
        "numberOfBytes": "64"
      },
      "t_uint256": {
        "encoding": "inplace",
        "label": "uint256",
        "numberOfBytes": "32"
      }
    }
  }
}