{
  "address": "0x0dB2EB9b77dc0fDF130d29D338763C0eDc7CA02D",
  "abi": [
    {
      "inputs": [],
      "stateMutability": "nonpayable",
      "type": "constructor"
    },
    {
      "anonymous": false,
      "inputs": [
        {
          "indexed": true,
          "internalType": "address",
          "name": "owner",
          "type": "address"
        },
        {
          "indexed": true,
          "internalType": "address",
          "name": "approved",
          "type": "address"
        },
        {
          "indexed": true,
          "internalType": "uint256",
          "name": "tokenId",
          "type": "uint256"
        }
      ],
      "name": "Approval",
      "type": "event"
    },
    {
      "anonymous": false,
      "inputs": [
        {
          "indexed": true,
          "internalType": "address",
          "name": "owner",
          "type": "address"
        },
        {
          "indexed": true,
          "internalType": "address",
          "name": "operator",
          "type": "address"
        },
        {
          "indexed": false,
          "internalType": "bool",
          "name": "approved",
          "type": "bool"
        }
      ],
      "name": "ApprovalForAll",
      "type": "event"
    },
    {
      "anonymous": false,
      "inputs": [
        {
          "indexed": true,
          "internalType": "bytes32",
          "name": "role",
          "type": "bytes32"
        },
        {
          "indexed": true,
          "internalType": "bytes32",
          "name": "previousAdminRole",
          "type": "bytes32"
        },
        {
          "indexed": true,
          "internalType": "bytes32",
          "name": "newAdminRole",
          "type": "bytes32"
        }
      ],
      "name": "RoleAdminChanged",
      "type": "event"
    },
    {
      "anonymous": false,
      "inputs": [
        {
          "indexed": true,
          "internalType": "bytes32",
          "name": "role",
          "type": "bytes32"
        },
        {
          "indexed": true,
          "internalType": "address",
          "name": "account",
          "type": "address"
        },
        {
          "indexed": true,
          "internalType": "address",
          "name": "sender",
          "type": "address"
        }
      ],
      "name": "RoleGranted",
      "type": "event"
    },
    {
      "anonymous": false,
      "inputs": [
        {
          "indexed": true,
          "internalType": "bytes32",
          "name": "role",
          "type": "bytes32"
        },
        {
          "indexed": true,
          "internalType": "address",
          "name": "account",
          "type": "address"
        },
        {
          "indexed": true,
          "internalType": "address",
          "name": "sender",
          "type": "address"
        }
      ],
      "name": "RoleRevoked",
      "type": "event"
    },
    {
      "anonymous": false,
      "inputs": [
        {
          "indexed": true,
          "internalType": "address",
          "name": "from",
          "type": "address"
        },
        {
          "indexed": true,
          "internalType": "address",
          "name": "to",
          "type": "address"
        },
        {
          "indexed": true,
          "internalType": "uint256",
          "name": "tokenId",
          "type": "uint256"
        }
      ],
      "name": "Transfer",
      "type": "event"
    },
    {
      "inputs": [],
      "name": "DEFAULT_ADMIN_ROLE",
      "outputs": [
        {
          "internalType": "bytes32",
          "name": "",
          "type": "bytes32"
        }
      ],
      "stateMutability": "view",
      "type": "function"
    },
    {
      "inputs": [
        {
          "internalType": "address",
          "name": "to",
          "type": "address"
        },
        {
          "internalType": "uint256",
          "name": "tokenId",
          "type": "uint256"
        }
      ],
      "name": "approve",
      "outputs": [],
      "stateMutability": "nonpayable",
      "type": "function"
    },
    {
      "inputs": [
        {
          "internalType": "address",
          "name": "owner",
          "type": "address"
        }
      ],
      "name": "balanceOf",
      "outputs": [
        {
          "internalType": "uint256",
          "name": "",
          "type": "uint256"
        }
      ],
      "stateMutability": "view",
      "type": "function"
    },
    {
      "inputs": [],
      "name": "defaultUri",
      "outputs": [
        {
          "internalType": "string",
          "name": "",
          "type": "string"
        }
      ],
      "stateMutability": "view",
      "type": "function"
    },
    {
      "inputs": [
        {
          "internalType": "uint256",
          "name": "tokenId",
          "type": "uint256"
        }
      ],
      "name": "getApproved",
      "outputs": [
        {
          "internalType": "address",
          "name": "",
          "type": "address"
        }
      ],
      "stateMutability": "view",
      "type": "function"
    },
    {
      "inputs": [
        {
          "internalType": "bytes32",
          "name": "role",
          "type": "bytes32"
        }
      ],
      "name": "getRoleAdmin",
      "outputs": [
        {
          "internalType": "bytes32",
          "name": "",
          "type": "bytes32"
        }
      ],
      "stateMutability": "view",
      "type": "function"
    },
    {
      "inputs": [
        {
          "internalType": "bytes32",
          "name": "role",
          "type": "bytes32"
        },
        {
          "internalType": "address",
          "name": "account",
          "type": "address"
        }
      ],
      "name": "grantRole",
      "outputs": [],
      "stateMutability": "nonpayable",
      "type": "function"
    },
    {
      "inputs": [
        {
          "internalType": "bytes32",
          "name": "role",
          "type": "bytes32"
        },
        {
          "internalType": "address",
          "name": "account",
          "type": "address"
        }
      ],
      "name": "hasRole",
      "outputs": [
        {
          "internalType": "bool",
          "name": "",
          "type": "bool"
        }
      ],
      "stateMutability": "view",
      "type": "function"
    },
    {
      "inputs": [
        {
          "internalType": "address",
          "name": "owner",
          "type": "address"
        },
        {
          "internalType": "address",
          "name": "operator",
          "type": "address"
        }
      ],
      "name": "isApprovedForAll",
      "outputs": [
        {
          "internalType": "bool",
          "name": "",
          "type": "bool"
        }
      ],
      "stateMutability": "view",
      "type": "function"
    },
    {
      "inputs": [
        {
          "internalType": "address",
          "name": "to",
          "type": "address"
        }
      ],
      "name": "mint",
      "outputs": [],
      "stateMutability": "nonpayable",
      "type": "function"
    },
    {
      "inputs": [],
      "name": "name",
      "outputs": [
        {
          "internalType": "string",
          "name": "",
          "type": "string"
        }
      ],
      "stateMutability": "view",
      "type": "function"
    },
    {
      "inputs": [
        {
          "internalType": "uint256",
          "name": "tokenId",
          "type": "uint256"
        }
      ],
      "name": "ownerOf",
      "outputs": [
        {
          "internalType": "address",
          "name": "",
          "type": "address"
        }
      ],
      "stateMutability": "view",
      "type": "function"
    },
    {
      "inputs": [
        {
          "internalType": "bytes32",
          "name": "role",
          "type": "bytes32"
        },
        {
          "internalType": "address",
          "name": "account",
          "type": "address"
        }
      ],
      "name": "renounceRole",
      "outputs": [],
      "stateMutability": "nonpayable",
      "type": "function"
    },
    {
      "inputs": [
        {
          "internalType": "bytes32",
          "name": "role",
          "type": "bytes32"
        },
        {
          "internalType": "address",
          "name": "account",
          "type": "address"
        }
      ],
      "name": "revokeRole",
      "outputs": [],
      "stateMutability": "nonpayable",
      "type": "function"
    },
    {
      "inputs": [
        {
          "internalType": "address",
          "name": "from",
          "type": "address"
        },
        {
          "internalType": "address",
          "name": "to",
          "type": "address"
        },
        {
          "internalType": "uint256",
          "name": "tokenId",
          "type": "uint256"
        }
      ],
      "name": "safeTransferFrom",
      "outputs": [],
      "stateMutability": "nonpayable",
      "type": "function"
    },
    {
      "inputs": [
        {
          "internalType": "address",
          "name": "from",
          "type": "address"
        },
        {
          "internalType": "address",
          "name": "to",
          "type": "address"
        },
        {
          "internalType": "uint256",
          "name": "tokenId",
          "type": "uint256"
        },
        {
          "internalType": "bytes",
          "name": "_data",
          "type": "bytes"
        }
      ],
      "name": "safeTransferFrom",
      "outputs": [],
      "stateMutability": "nonpayable",
      "type": "function"
    },
    {
      "inputs": [
        {
          "internalType": "address",
          "name": "operator",
          "type": "address"
        },
        {
          "internalType": "bool",
          "name": "approved",
          "type": "bool"
        }
      ],
      "name": "setApprovalForAll",
      "outputs": [],
      "stateMutability": "nonpayable",
      "type": "function"
    },
    {
      "inputs": [
        {
          "internalType": "string",
          "name": "uri",
          "type": "string"
        }
      ],
      "name": "setDefaultUri",
      "outputs": [],
      "stateMutability": "nonpayable",
      "type": "function"
    },
    {
      "inputs": [
        {
          "internalType": "bytes4",
          "name": "interfaceId",
          "type": "bytes4"
        }
      ],
      "name": "supportsInterface",
      "outputs": [
        {
          "internalType": "bool",
          "name": "",
          "type": "bool"
        }
      ],
      "stateMutability": "view",
      "type": "function"
    },
    {
      "inputs": [],
      "name": "symbol",
      "outputs": [
        {
          "internalType": "string",
          "name": "",
          "type": "string"
        }
      ],
      "stateMutability": "view",
      "type": "function"
    },
    {
      "inputs": [
        {
          "internalType": "uint256",
          "name": "index",
          "type": "uint256"
        }
      ],
      "name": "tokenByIndex",
      "outputs": [
        {
          "internalType": "uint256",
          "name": "",
          "type": "uint256"
        }
      ],
      "stateMutability": "view",
      "type": "function"
    },
    {
      "inputs": [
        {
          "internalType": "address",
          "name": "owner",
          "type": "address"
        },
        {
          "internalType": "uint256",
          "name": "index",
          "type": "uint256"
        }
      ],
      "name": "tokenOfOwnerByIndex",
      "outputs": [
        {
          "internalType": "uint256",
          "name": "",
          "type": "uint256"
        }
      ],
      "stateMutability": "view",
      "type": "function"
    },
    {
      "inputs": [
        {
          "internalType": "uint256",
          "name": "tokenId",
          "type": "uint256"
        }
      ],
      "name": "tokenURI",
      "outputs": [
        {
          "internalType": "string",
          "name": "",
          "type": "string"
        }
      ],
      "stateMutability": "view",
      "type": "function"
    },
    {
      "inputs": [],
      "name": "totalSupply",
      "outputs": [
        {
          "internalType": "uint256",
          "name": "",
          "type": "uint256"
        }
      ],
      "stateMutability": "view",
      "type": "function"
    },
    {
      "inputs": [
        {
          "internalType": "address",
          "name": "from",
          "type": "address"
        },
        {
          "internalType": "address",
          "name": "to",
          "type": "address"
        },
        {
          "internalType": "uint256",
          "name": "tokenId",
          "type": "uint256"
        }
      ],
      "name": "transferFrom",
      "outputs": [],
      "stateMutability": "nonpayable",
      "type": "function"
    }
  ],
  "transactionHash": "0x0a74bc229aac4b1b78d7c83f4820f77d7740d73af8bbd49b7de39599dd96aff3",
  "args": [],
  "solcInputHash": "e6ec62f8606aef3401fa930ddd24b16e",
  "bytecode": "0x60806040523480156200001157600080fd5b5060408051808201825260078152664772697a7a6c7960c81b60208083019182528351808501909452600484526311d4969360e21b9084015281519192916200005d916000916200013f565b508051620000739060019060208401906200013f565b5062000085915060009050336200008b565b62000222565b6200009782826200009b565b5050565b6000828152600a602090815260408083206001600160a01b038516845290915290205460ff1662000097576000828152600a602090815260408083206001600160a01b03851684529091529020805460ff19166001179055620000fb3390565b6001600160a01b0316816001600160a01b0316837f2f8788117e7eff1d82e926ec794901d17c78024a50270940304540a733656f0d60405160405180910390a45050565b8280546200014d90620001e5565b90600052602060002090601f016020900481019282620001715760008555620001bc565b82601f106200018c57805160ff1916838001178555620001bc565b82800160010185558215620001bc579182015b82811115620001bc5782518255916020019190600101906200019f565b50620001ca929150620001ce565b5090565b5b80821115620001ca5760008155600101620001cf565b600181811c90821680620001fa57607f821691505b602082108114156200021c57634e487b7160e01b600052602260045260246000fd5b50919050565b61202880620002326000396000f3fe608060405234801561001057600080fd5b50600436106101735760003560e01c80634f6ccce7116100de578063a217fddf11610097578063c87b56dd11610071578063c87b56dd14610331578063d2d99fec14610344578063d547741f1461034c578063e985e9c51461035f57600080fd5b8063a217fddf14610303578063a22cb4651461030b578063b88d4fde1461031e57600080fd5b80634f6ccce71461029c5780636352211e146102af5780636a627842146102c257806370a08231146102d557806391d14854146102e857806395d89b41146102fb57600080fd5b8063248a9ca311610130578063248a9ca31461021a5780632f2ff15d1461023d5780632f745c591461025057806336568abe1461026357806342842e0e14610276578063466a18de1461028957600080fd5b806301ffc9a71461017857806306fdde03146101a0578063081812fc146101b5578063095ea7b3146101e057806318160ddd146101f557806323b872dd14610207575b600080fd5b61018b61018636600461193d565b61039b565b60405190151581526020015b60405180910390f35b6101a86103ac565b60405161019791906119b2565b6101c86101c33660046119c5565b61043e565b6040516001600160a01b039091168152602001610197565b6101f36101ee3660046119fa565b6104d8565b005b6008545b604051908152602001610197565b6101f3610215366004611a24565b6105ee565b6101f96102283660046119c5565b6000908152600a602052604090206001015490565b6101f361024b366004611a60565b61061f565b6101f961025e3660046119fa565b610645565b6101f3610271366004611a60565b6106db565b6101f3610284366004611a24565b610759565b6101f3610297366004611b18565b610774565b6101f96102aa3660046119c5565b610793565b6101c86102bd3660046119c5565b610826565b6101f36102d0366004611b61565b61089d565b6101f96102e3366004611b61565b6108b4565b61018b6102f6366004611a60565b61093b565b6101a8610966565b6101f9600081565b6101f3610319366004611b7c565b610975565b6101f361032c366004611bb8565b610a3a565b6101a861033f3660046119c5565b610a72565b6101a8610b18565b6101f361035a366004611a60565b610ba6565b61018b61036d366004611c34565b6001600160a01b03918216600090815260056020908152604080832093909416825291909152205460ff1690565b60006103a682610bcc565b92915050565b6060600080546103bb90611c5e565b80601f01602080910402602001604051908101604052809291908181526020018280546103e790611c5e565b80156104345780601f1061040957610100808354040283529160200191610434565b820191906000526020600020905b81548152906001019060200180831161041757829003601f168201915b5050505050905090565b6000818152600260205260408120546001600160a01b03166104bc5760405162461bcd60e51b815260206004820152602c60248201527f4552433732313a20617070726f76656420717565727920666f72206e6f6e657860448201526b34b9ba32b73a103a37b5b2b760a11b60648201526084015b60405180910390fd5b506000908152600460205260409020546001600160a01b031690565b60006104e382610826565b9050806001600160a01b0316836001600160a01b031614156105515760405162461bcd60e51b815260206004820152602160248201527f4552433732313a20617070726f76616c20746f2063757272656e74206f776e656044820152603960f91b60648201526084016104b3565b336001600160a01b038216148061056d575061056d813361036d565b6105df5760405162461bcd60e51b815260206004820152603860248201527f4552433732313a20617070726f76652063616c6c6572206973206e6f74206f7760448201527f6e6572206e6f7220617070726f76656420666f7220616c6c000000000000000060648201526084016104b3565b6105e98383610bf1565b505050565b6105f83382610c5f565b6106145760405162461bcd60e51b81526004016104b390611c99565b6105e9838383610d56565b6000828152600a602052604090206001015461063b8133610f01565b6105e98383610f65565b6000610650836108b4565b82106106b25760405162461bcd60e51b815260206004820152602b60248201527f455243373231456e756d657261626c653a206f776e657220696e646578206f7560448201526a74206f6620626f756e647360a81b60648201526084016104b3565b506001600160a01b03919091166000908152600660209081526040808320938352929052205490565b6001600160a01b038116331461074b5760405162461bcd60e51b815260206004820152602f60248201527f416363657373436f6e74726f6c3a2063616e206f6e6c792072656e6f756e636560448201526e103937b632b9903337b91039b2b63360891b60648201526084016104b3565b6107558282610feb565b5050565b6105e983838360405180602001604052806000815250610a3a565b60006107808133610f01565b81516105e990600b90602085019061188b565b600061079e60085490565b82106108015760405162461bcd60e51b815260206004820152602c60248201527f455243373231456e756d657261626c653a20676c6f62616c20696e646578206f60448201526b7574206f6620626f756e647360a01b60648201526084016104b3565b6008828154811061081457610814611cea565b90600052602060002001549050919050565b6000818152600260205260408120546001600160a01b0316806103a65760405162461bcd60e51b815260206004820152602960248201527f4552433732313a206f776e657220717565727920666f72206e6f6e657869737460448201526832b73a103a37b5b2b760b91b60648201526084016104b3565b60006108a860085490565b90506107558282611052565b60006001600160a01b03821661091f5760405162461bcd60e51b815260206004820152602a60248201527f4552433732313a2062616c616e636520717565727920666f7220746865207a65604482015269726f206164647265737360b01b60648201526084016104b3565b506001600160a01b031660009081526003602052604090205490565b6000918252600a602090815260408084206001600160a01b0393909316845291905290205460ff1690565b6060600180546103bb90611c5e565b6001600160a01b0382163314156109ce5760405162461bcd60e51b815260206004820152601960248201527f4552433732313a20617070726f766520746f2063616c6c65720000000000000060448201526064016104b3565b3360008181526005602090815260408083206001600160a01b03871680855290835292819020805460ff191686151590811790915590519081529192917f17307eab39ab6107e8899845ad3d59bd9653f200f220920489ca2b5937696c31910160405180910390a35050565b610a443383610c5f565b610a605760405162461bcd60e51b81526004016104b390611c99565b610a6c8484848461106c565b50505050565b6000818152600260205260409020546060906001600160a01b0316610ad95760405162461bcd60e51b815260206004820152601f60248201527f55524920717565727920666f72206e6f6e6578697374656e7420746f6b656e0060448201526064016104b3565b610ae4601083611d16565b9150600b610af18361109f565b604051602001610b02929190611d46565b6040516020818303038152906040529050919050565b600b8054610b2590611c5e565b80601f0160208091040260200160405190810160405280929190818152602001828054610b5190611c5e565b8015610b9e5780601f10610b7357610100808354040283529160200191610b9e565b820191906000526020600020905b815481529060010190602001808311610b8157829003601f168201915b505050505081565b6000828152600a6020526040902060010154610bc28133610f01565b6105e98383610feb565b60006001600160e01b03198216637965db0b60e01b14806103a657506103a68261119d565b600081815260046020526040902080546001600160a01b0319166001600160a01b0384169081179091558190610c2682610826565b6001600160a01b03167f8c5be1e5ebec7d5bd14f71427d1e84f3dd0314c0f7b2291e5b200ac8c7c3b92560405160405180910390a45050565b6000818152600260205260408120546001600160a01b0316610cd85760405162461bcd60e51b815260206004820152602c60248201527f4552433732313a206f70657261746f7220717565727920666f72206e6f6e657860448201526b34b9ba32b73a103a37b5b2b760a11b60648201526084016104b3565b6000610ce383610826565b9050806001600160a01b0316846001600160a01b03161480610d1e5750836001600160a01b0316610d138461043e565b6001600160a01b0316145b80610d4e57506001600160a01b0380821660009081526005602090815260408083209388168352929052205460ff165b949350505050565b826001600160a01b0316610d6982610826565b6001600160a01b031614610dd15760405162461bcd60e51b815260206004820152602960248201527f4552433732313a207472616e73666572206f6620746f6b656e2074686174206960448201526839903737ba1037bbb760b91b60648201526084016104b3565b6001600160a01b038216610e335760405162461bcd60e51b8152602060048201526024808201527f4552433732313a207472616e7366657220746f20746865207a65726f206164646044820152637265737360e01b60648201526084016104b3565b610e3e8383836111c2565b610e49600082610bf1565b6001600160a01b0383166000908152600360205260408120805460019290610e72908490611e27565b90915550506001600160a01b0382166000908152600360205260408120805460019290610ea0908490611e3e565b909155505060008181526002602052604080822080546001600160a01b0319166001600160a01b0386811691821790925591518493918716917fddf252ad1be2c89b69c2b068fc378daa952ba7f163c4a11628f55a4df523b3ef91a4505050565b610f0b828261093b565b61075557610f23816001600160a01b0316601461127a565b610f2e83602061127a565b604051602001610f3f929190611e56565b60408051601f198184030181529082905262461bcd60e51b82526104b3916004016119b2565b610f6f828261093b565b610755576000828152600a602090815260408083206001600160a01b03851684529091529020805460ff19166001179055610fa73390565b6001600160a01b0316816001600160a01b0316837f2f8788117e7eff1d82e926ec794901d17c78024a50270940304540a733656f0d60405160405180910390a45050565b610ff5828261093b565b15610755576000828152600a602090815260408083206001600160a01b0385168085529252808320805460ff1916905551339285917ff6391f5c32d9c69d2a47ea670b442974b53935d1edc7fd64eb21e047a839171b9190a45050565b61075582826040518060200160405280600081525061141d565b611077848484610d56565b61108384848484611450565b610a6c5760405162461bcd60e51b81526004016104b390611ecb565b6060816110c35750506040805180820190915260018152600360fc1b602082015290565b8160005b81156110ed57806110d781611f1d565b91506110e69050600a83611f38565b91506110c7565b60008167ffffffffffffffff81111561110857611108611a8c565b6040519080825280601f01601f191660200182016040528015611132576020820181803683370190505b5090505b8415610d4e57611147600183611e27565b9150611154600a86611d16565b61115f906030611e3e565b60f81b81838151811061117457611174611cea565b60200101906001600160f81b031916908160001a905350611196600a86611f38565b9450611136565b60006001600160e01b0319821663780e9d6360e01b14806103a657506103a68261155d565b6001600160a01b03831661121d5761121881600880546000838152600960205260408120829055600182018355919091527ff3f7a9fe364faab93b216da50a3214154f22a0a2b415b23a84c8169e8b636ee30155565b611240565b816001600160a01b0316836001600160a01b0316146112405761124083826115ad565b6001600160a01b038216611257576105e98161164a565b826001600160a01b0316826001600160a01b0316146105e9576105e982826116f9565b60606000611289836002611f4c565b611294906002611e3e565b67ffffffffffffffff8111156112ac576112ac611a8c565b6040519080825280601f01601f1916602001820160405280156112d6576020820181803683370190505b509050600360fc1b816000815181106112f1576112f1611cea565b60200101906001600160f81b031916908160001a905350600f60fb1b8160018151811061132057611320611cea565b60200101906001600160f81b031916908160001a9053506000611344846002611f4c565b61134f906001611e3e565b90505b60018111156113c7576f181899199a1a9b1b9c1cb0b131b232b360811b85600f166010811061138357611383611cea565b1a60f81b82828151811061139957611399611cea565b60200101906001600160f81b031916908160001a90535060049490941c936113c081611f6b565b9050611352565b5083156114165760405162461bcd60e51b815260206004820181905260248201527f537472696e67733a20686578206c656e67746820696e73756666696369656e7460448201526064016104b3565b9392505050565b611427838361173d565b6114346000848484611450565b6105e95760405162461bcd60e51b81526004016104b390611ecb565b60006001600160a01b0384163b1561155257604051630a85bd0160e11b81526001600160a01b0385169063150b7a0290611494903390899088908890600401611f82565b602060405180830381600087803b1580156114ae57600080fd5b505af19250505080156114de575060408051601f3d908101601f191682019092526114db91810190611fbf565b60015b611538573d80801561150c576040519150601f19603f3d011682016040523d82523d6000602084013e611511565b606091505b5080516115305760405162461bcd60e51b81526004016104b390611ecb565b805181602001fd5b6001600160e01b031916630a85bd0160e11b149050610d4e565b506001949350505050565b60006001600160e01b031982166380ac58cd60e01b148061158e57506001600160e01b03198216635b5e139f60e01b145b806103a657506301ffc9a760e01b6001600160e01b03198316146103a6565b600060016115ba846108b4565b6115c49190611e27565b600083815260076020526040902054909150808214611617576001600160a01b03841660009081526006602090815260408083208584528252808320548484528184208190558352600790915290208190555b5060009182526007602090815260408084208490556001600160a01b039094168352600681528383209183525290812055565b60085460009061165c90600190611e27565b6000838152600960205260408120546008805493945090928490811061168457611684611cea565b9060005260206000200154905080600883815481106116a5576116a5611cea565b60009182526020808320909101929092558281526009909152604080822084905585825281205560088054806116dd576116dd611fdc565b6001900381819060005260206000200160009055905550505050565b6000611704836108b4565b6001600160a01b039093166000908152600660209081526040808320868452825280832085905593825260079052919091209190915550565b6001600160a01b0382166117935760405162461bcd60e51b815260206004820181905260248201527f4552433732313a206d696e7420746f20746865207a65726f206164647265737360448201526064016104b3565b6000818152600260205260409020546001600160a01b0316156117f85760405162461bcd60e51b815260206004820152601c60248201527f4552433732313a20746f6b656e20616c7265616479206d696e7465640000000060448201526064016104b3565b611804600083836111c2565b6001600160a01b038216600090815260036020526040812080546001929061182d908490611e3e565b909155505060008181526002602052604080822080546001600160a01b0319166001600160a01b03861690811790915590518392907fddf252ad1be2c89b69c2b068fc378daa952ba7f163c4a11628f55a4df523b3ef908290a45050565b82805461189790611c5e565b90600052602060002090601f0160209004810192826118b957600085556118ff565b82601f106118d257805160ff19168380011785556118ff565b828001600101855582156118ff579182015b828111156118ff5782518255916020019190600101906118e4565b5061190b92915061190f565b5090565b5b8082111561190b5760008155600101611910565b6001600160e01b03198116811461193a57600080fd5b50565b60006020828403121561194f57600080fd5b813561141681611924565b60005b8381101561197557818101518382015260200161195d565b83811115610a6c5750506000910152565b6000815180845261199e81602086016020860161195a565b601f01601f19169290920160200192915050565b6020815260006114166020830184611986565b6000602082840312156119d757600080fd5b5035919050565b80356001600160a01b03811681146119f557600080fd5b919050565b60008060408385031215611a0d57600080fd5b611a16836119de565b946020939093013593505050565b600080600060608486031215611a3957600080fd5b611a42846119de565b9250611a50602085016119de565b9150604084013590509250925092565b60008060408385031215611a7357600080fd5b82359150611a83602084016119de565b90509250929050565b634e487b7160e01b600052604160045260246000fd5b600067ffffffffffffffff80841115611abd57611abd611a8c565b604051601f8501601f19908116603f01168101908282118183101715611ae557611ae5611a8c565b81604052809350858152868686011115611afe57600080fd5b858560208301376000602087830101525050509392505050565b600060208284031215611b2a57600080fd5b813567ffffffffffffffff811115611b4157600080fd5b8201601f81018413611b5257600080fd5b610d4e84823560208401611aa2565b600060208284031215611b7357600080fd5b611416826119de565b60008060408385031215611b8f57600080fd5b611b98836119de565b915060208301358015158114611bad57600080fd5b809150509250929050565b60008060008060808587031215611bce57600080fd5b611bd7856119de565b9350611be5602086016119de565b925060408501359150606085013567ffffffffffffffff811115611c0857600080fd5b8501601f81018713611c1957600080fd5b611c2887823560208401611aa2565b91505092959194509250565b60008060408385031215611c4757600080fd5b611c50836119de565b9150611a83602084016119de565b600181811c90821680611c7257607f821691505b60208210811415611c9357634e487b7160e01b600052602260045260246000fd5b50919050565b60208082526031908201527f4552433732313a207472616e736665722063616c6c6572206973206e6f74206f6040820152701ddb995c881b9bdc88185c1c1c9bdd9959607a1b606082015260800190565b634e487b7160e01b600052603260045260246000fd5b634e487b7160e01b600052601260045260246000fd5b600082611d2557611d25611d00565b500690565b60008151611d3c81856020860161195a565b9290920192915050565b600080845481600182811c915080831680611d6257607f831692505b6020808410821415611d8257634e487b7160e01b86526022600452602486fd5b818015611d965760018114611da757611dd4565b60ff19861689528489019650611dd4565b60008b81526020902060005b86811015611dcc5781548b820152908501908301611db3565b505084890196505b505050505050611e08611df7611df183602f60f81b815260010190565b86611d2a565b64173539b7b760d91b815260050190565b95945050505050565b634e487b7160e01b600052601160045260246000fd5b600082821015611e3957611e39611e11565b500390565b60008219821115611e5157611e51611e11565b500190565b7f416363657373436f6e74726f6c3a206163636f756e7420000000000000000000815260008351611e8e81601785016020880161195a565b7001034b99036b4b9b9b4b733903937b6329607d1b6017918401918201528351611ebf81602884016020880161195a565b01602801949350505050565b60208082526032908201527f4552433732313a207472616e7366657220746f206e6f6e20455243373231526560408201527131b2b4bb32b91034b6b83632b6b2b73a32b960711b606082015260800190565b6000600019821415611f3157611f31611e11565b5060010190565b600082611f4757611f47611d00565b500490565b6000816000190483118215151615611f6657611f66611e11565b500290565b600081611f7a57611f7a611e11565b506000190190565b6001600160a01b0385811682528416602082015260408101839052608060608201819052600090611fb590830184611986565b9695505050505050565b600060208284031215611fd157600080fd5b815161141681611924565b634e487b7160e01b600052603160045260246000fdfea2646970667358221220c64b1f3e1c223fd9069b819bebb89bd8890c15a08b23249157f78dd43041695164736f6c63430008090033",
  "devdoc": {
    "author": "OnBridge IO team*",
    "kind": "dev",
    "methods": {
      "approve(address,uint256)": {
        "details": "See {IERC721-approve}."
      },
      "balanceOf(address)": {
        "details": "See {IERC721-balanceOf}."
      },
      "getApproved(uint256)": {
        "details": "See {IERC721-getApproved}."
      },
      "getRoleAdmin(bytes32)": {
        "details": "Returns the admin role that controls `role`. See {grantRole} and {revokeRole}. To change a role's admin, use {_setRoleAdmin}."
      },
      "grantRole(bytes32,address)": {
        "details": "Grants `role` to `account`. If `account` had not been already granted `role`, emits a {RoleGranted} event. Requirements: - the caller must have ``role``'s admin role."
      },
      "hasRole(bytes32,address)": {
        "details": "Returns `true` if `account` has been granted `role`."
      },
      "isApprovedForAll(address,address)": {
        "details": "See {IERC721-isApprovedForAll}."
      },
      "mint(address)": {
        "details": "Mints a specific to the given address",
        "params": {
          "to": "the receiver"
        }
      },
      "name()": {
        "details": "See {IERC721Metadata-name}."
      },
      "ownerOf(uint256)": {
        "details": "See {IERC721-ownerOf}."
      },
      "renounceRole(bytes32,address)": {
        "details": "Revokes `role` from the calling account. Roles are often managed via {grantRole} and {revokeRole}: this function's purpose is to provide a mechanism for accounts to lose their privileges if they are compromised (such as when a trusted device is misplaced). If the calling account had been granted `role`, emits a {RoleRevoked} event. Requirements: - the caller must be `account`."
      },
      "revokeRole(bytes32,address)": {
        "details": "Revokes `role` from `account`. If `account` had been granted `role`, emits a {RoleRevoked} event. Requirements: - the caller must have ``role``'s admin role."
      },
      "safeTransferFrom(address,address,uint256)": {
        "details": "See {IERC721-safeTransferFrom}."
      },
      "safeTransferFrom(address,address,uint256,bytes)": {
        "details": "See {IERC721-safeTransferFrom}."
      },
      "setApprovalForAll(address,bool)": {
        "details": "See {IERC721-setApprovalForAll}."
      },
      "setDefaultUri(string)": {
        "details": "Set defaultUri"
      },
      "supportsInterface(bytes4)": {
        "details": "See {IERC165-supportsInterface}."
      },
      "symbol()": {
        "details": "See {IERC721Metadata-symbol}."
      },
      "tokenByIndex(uint256)": {
        "details": "See {IERC721Enumerable-tokenByIndex}."
      },
      "tokenOfOwnerByIndex(address,uint256)": {
        "details": "See {IERC721Enumerable-tokenOfOwnerByIndex}."
      },
      "tokenURI(uint256)": {
        "details": "IPFS address that stores JSON with token attributes",
        "params": {
          "tokenId": "id of the token"
        },
        "returns": {
          "_0": "string with ipfs address to json with token attribute or URI for default token if token doesn`t exist"
        }
      },
      "totalSupply()": {
        "details": "See {IERC721Enumerable-totalSupply}."
      },
      "transferFrom(address,address,uint256)": {
        "details": "See {IERC721-transferFrom}."
      }
    },
    "title": "L2Token",
    "version": 1
  },
  "userdoc": {
    "kind": "user",
    "methods": {},
    "version": 1
  },
  "storageLayout": {
    "storage": [
      {
        "astId": 1552,
        "contract": "contracts/L1Token.sol:L1Token",
        "label": "_name",
        "offset": 0,
        "slot": "0",
        "type": "t_string_storage"
      },
      {
        "astId": 1554,
        "contract": "contracts/L1Token.sol:L1Token",
        "label": "_symbol",
        "offset": 0,
        "slot": "1",
        "type": "t_string_storage"
      },
      {
        "astId": 1558,
        "contract": "contracts/L1Token.sol:L1Token",
        "label": "_owners",
        "offset": 0,
        "slot": "2",
        "type": "t_mapping(t_uint256,t_address)"
      },
      {
        "astId": 1562,
        "contract": "contracts/L1Token.sol:L1Token",
        "label": "_balances",
        "offset": 0,
        "slot": "3",
        "type": "t_mapping(t_address,t_uint256)"
      },
      {
        "astId": 1566,
        "contract": "contracts/L1Token.sol:L1Token",
        "label": "_tokenApprovals",
        "offset": 0,
        "slot": "4",
        "type": "t_mapping(t_uint256,t_address)"
      },
      {
        "astId": 1572,
        "contract": "contracts/L1Token.sol:L1Token",
        "label": "_operatorApprovals",
        "offset": 0,
        "slot": "5",
        "type": "t_mapping(t_address,t_mapping(t_address,t_bool))"
      },
      {
        "astId": 2491,
        "contract": "contracts/L1Token.sol:L1Token",
        "label": "_ownedTokens",
        "offset": 0,
        "slot": "6",
        "type": "t_mapping(t_address,t_mapping(t_uint256,t_uint256))"
      },
      {
        "astId": 2495,
        "contract": "contracts/L1Token.sol:L1Token",
        "label": "_ownedTokensIndex",
        "offset": 0,
        "slot": "7",
        "type": "t_mapping(t_uint256,t_uint256)"
      },
      {
        "astId": 2498,
        "contract": "contracts/L1Token.sol:L1Token",
        "label": "_allTokens",
        "offset": 0,
        "slot": "8",
        "type": "t_array(t_uint256)dyn_storage"
      },
      {
        "astId": 2502,
        "contract": "contracts/L1Token.sol:L1Token",
        "label": "_allTokensIndex",
        "offset": 0,
        "slot": "9",
        "type": "t_mapping(t_uint256,t_uint256)"
      },
      {
        "astId": 1171,
        "contract": "contracts/L1Token.sol:L1Token",
        "label": "_roles",
        "offset": 0,
        "slot": "10",
        "type": "t_mapping(t_bytes32,t_struct(RoleData)1166_storage)"
      },
      {
        "astId": 4049,
        "contract": "contracts/L1Token.sol:L1Token",
        "label": "defaultUri",
        "offset": 0,
        "slot": "11",
        "type": "t_string_storage"
      }
    ],
    "types": {
      "t_address": {
        "encoding": "inplace",
        "label": "address",
        "numberOfBytes": "20"
      },
      "t_array(t_uint256)dyn_storage": {
        "base": "t_uint256",
        "encoding": "dynamic_array",
        "label": "uint256[]",
        "numberOfBytes": "32"
      },
      "t_bool": {
        "encoding": "inplace",
        "label": "bool",
        "numberOfBytes": "1"
      },
      "t_bytes32": {
        "encoding": "inplace",
        "label": "bytes32",
        "numberOfBytes": "32"
      },
      "t_mapping(t_address,t_bool)": {
        "encoding": "mapping",
        "key": "t_address",
        "label": "mapping(address => bool)",
        "numberOfBytes": "32",
        "value": "t_bool"
      },
      "t_mapping(t_address,t_mapping(t_address,t_bool))": {
        "encoding": "mapping",
        "key": "t_address",
        "label": "mapping(address => mapping(address => bool))",
        "numberOfBytes": "32",
        "value": "t_mapping(t_address,t_bool)"
      },
      "t_mapping(t_address,t_mapping(t_uint256,t_uint256))": {
        "encoding": "mapping",
        "key": "t_address",
        "label": "mapping(address => mapping(uint256 => uint256))",
        "numberOfBytes": "32",
        "value": "t_mapping(t_uint256,t_uint256)"
      },
      "t_mapping(t_address,t_uint256)": {
        "encoding": "mapping",
        "key": "t_address",
        "label": "mapping(address => uint256)",
        "numberOfBytes": "32",
        "value": "t_uint256"
      },
      "t_mapping(t_bytes32,t_struct(RoleData)1166_storage)": {
        "encoding": "mapping",
        "key": "t_bytes32",
        "label": "mapping(bytes32 => struct AccessControl.RoleData)",
        "numberOfBytes": "32",
        "value": "t_struct(RoleData)1166_storage"
      },
      "t_mapping(t_uint256,t_address)": {
        "encoding": "mapping",
        "key": "t_uint256",
        "label": "mapping(uint256 => address)",
        "numberOfBytes": "32",
        "value": "t_address"
      },
      "t_mapping(t_uint256,t_uint256)": {
        "encoding": "mapping",
        "key": "t_uint256",
        "label": "mapping(uint256 => uint256)",
        "numberOfBytes": "32",
        "value": "t_uint256"
      },
      "t_string_storage": {
        "encoding": "bytes",
        "label": "string",
        "numberOfBytes": "32"
      },
      "t_struct(RoleData)1166_storage": {
        "encoding": "inplace",
        "label": "struct AccessControl.RoleData",
        "members": [
          {
            "astId": 1163,
            "contract": "contracts/L1Token.sol:L1Token",
            "label": "members",
            "offset": 0,
            "slot": "0",
            "type": "t_mapping(t_address,t_bool)"
          },
          {
            "astId": 1165,
            "contract": "contracts/L1Token.sol:L1Token",
            "label": "adminRole",
            "offset": 0,
            "slot": "1",
            "type": "t_bytes32"
          }
        ],
        "numberOfBytes": "64"
      },
      "t_uint256": {
        "encoding": "inplace",
        "label": "uint256",
        "numberOfBytes": "32"
      }
    }
  }
}