{
  "address": "0x4ec28d7b5A0daE81A4ac4aE017BfE17786aE7aB2",
  "abi": [
    {
      "inputs": [
        {
          "internalType": "contract IERC721",
          "name": "_l1Token",
          "type": "address"
        },
        {
          "internalType": "contract IERC721Bridged",
          "name": "_l2Token",
          "type": "address"
        }
      ],
      "stateMutability": "nonpayable",
      "type": "constructor"
    },
    {
      "anonymous": false,
      "inputs": [
        {
          "indexed": true,
          "internalType": "address",
          "name": "l1Token",
          "type": "address"
        },
        {
          "indexed": true,
          "internalType": "string",
          "name": "_l1Tx",
          "type": "string"
        },
        {
          "indexed": true,
          "internalType": "address",
          "name": "_to",
          "type": "address"
        },
        {
          "indexed": false,
          "internalType": "uint256",
          "name": "_id",
          "type": "uint256"
        }
      ],
      "name": "DepositFinalized",
      "type": "event"
    },
    {
      "anonymous": false,
      "inputs": [
        {
          "indexed": true,
          "internalType": "bytes32",
          "name": "role",
          "type": "bytes32"
        },
        {
          "indexed": true,
          "internalType": "bytes32",
          "name": "previousAdminRole",
          "type": "bytes32"
        },
        {
          "indexed": true,
          "internalType": "bytes32",
          "name": "newAdminRole",
          "type": "bytes32"
        }
      ],
      "name": "RoleAdminChanged",
      "type": "event"
    },
    {
      "anonymous": false,
      "inputs": [
        {
          "indexed": true,
          "internalType": "bytes32",
          "name": "role",
          "type": "bytes32"
        },
        {
          "indexed": true,
          "internalType": "address",
          "name": "account",
          "type": "address"
        },
        {
          "indexed": true,
          "internalType": "address",
          "name": "sender",
          "type": "address"
        }
      ],
      "name": "RoleGranted",
      "type": "event"
    },
    {
      "anonymous": false,
      "inputs": [
        {
          "indexed": true,
          "internalType": "bytes32",
          "name": "role",
          "type": "bytes32"
        },
        {
          "indexed": true,
          "internalType": "address",
          "name": "account",
          "type": "address"
        },
        {
          "indexed": true,
          "internalType": "address",
          "name": "sender",
          "type": "address"
        }
      ],
      "name": "RoleRevoked",
      "type": "event"
    },
    {
      "anonymous": false,
      "inputs": [
        {
          "indexed": false,
          "internalType": "address",
          "name": "l1Token",
          "type": "address"
        },
        {
          "indexed": true,
          "internalType": "address",
          "name": "_from",
          "type": "address"
        },
        {
          "indexed": true,
          "internalType": "address",
          "name": "_to",
          "type": "address"
        },
        {
          "indexed": false,
          "internalType": "uint256",
          "name": "_id",
          "type": "uint256"
        }
      ],
      "name": "WithdrawalInitiated",
      "type": "event"
    },
    {
      "inputs": [],
      "name": "DEFAULT_ADMIN_ROLE",
      "outputs": [
        {
          "internalType": "bytes32",
          "name": "",
          "type": "bytes32"
        }
      ],
      "stateMutability": "view",
      "type": "function"
    },
    {
      "inputs": [],
      "name": "ORACLE_ROLE",
      "outputs": [
        {
          "internalType": "bytes32",
          "name": "",
          "type": "bytes32"
        }
      ],
      "stateMutability": "view",
      "type": "function"
    },
    {
      "inputs": [
        {
          "internalType": "address",
          "name": "_to",
          "type": "address"
        },
        {
          "internalType": "string",
          "name": "_l1Tx",
          "type": "string"
        },
        {
          "internalType": "uint256",
          "name": "_id",
          "type": "uint256"
        }
      ],
      "name": "finalizeInboundTransfer",
      "outputs": [],
      "stateMutability": "nonpayable",
      "type": "function"
    },
    {
      "inputs": [
        {
          "internalType": "bytes32",
          "name": "role",
          "type": "bytes32"
        }
      ],
      "name": "getRoleAdmin",
      "outputs": [
        {
          "internalType": "bytes32",
          "name": "",
          "type": "bytes32"
        }
      ],
      "stateMutability": "view",
      "type": "function"
    },
    {
      "inputs": [
        {
          "internalType": "bytes32",
          "name": "role",
          "type": "bytes32"
        },
        {
          "internalType": "address",
          "name": "account",
          "type": "address"
        }
      ],
      "name": "grantRole",
      "outputs": [],
      "stateMutability": "nonpayable",
      "type": "function"
    },
    {
      "inputs": [
        {
          "internalType": "bytes32",
          "name": "role",
          "type": "bytes32"
        },
        {
          "internalType": "address",
          "name": "account",
          "type": "address"
        }
      ],
      "name": "hasRole",
      "outputs": [
        {
          "internalType": "bool",
          "name": "",
          "type": "bool"
        }
      ],
      "stateMutability": "view",
      "type": "function"
    },
    {
      "inputs": [],
      "name": "l1Token",
      "outputs": [
        {
          "internalType": "contract IERC721",
          "name": "",
          "type": "address"
        }
      ],
      "stateMutability": "view",
      "type": "function"
    },
    {
      "inputs": [],
      "name": "l2Token",
      "outputs": [
        {
          "internalType": "contract IERC721Bridged",
          "name": "",
          "type": "address"
        }
      ],
      "stateMutability": "view",
      "type": "function"
    },
    {
      "inputs": [
        {
          "internalType": "address",
          "name": "_to",
          "type": "address"
        },
        {
          "internalType": "uint256",
          "name": "_id",
          "type": "uint256"
        }
      ],
      "name": "outboundTransfer",
      "outputs": [],
      "stateMutability": "nonpayable",
      "type": "function"
    },
    {
      "inputs": [
        {
          "internalType": "bytes32",
          "name": "role",
          "type": "bytes32"
        },
        {
          "internalType": "address",
          "name": "account",
          "type": "address"
        }
      ],
      "name": "renounceRole",
      "outputs": [],
      "stateMutability": "nonpayable",
      "type": "function"
    },
    {
      "inputs": [
        {
          "internalType": "bytes32",
          "name": "role",
          "type": "bytes32"
        },
        {
          "internalType": "address",
          "name": "account",
          "type": "address"
        }
      ],
      "name": "revokeRole",
      "outputs": [],
      "stateMutability": "nonpayable",
      "type": "function"
    },
    {
      "inputs": [
        {
          "internalType": "bytes4",
          "name": "interfaceId",
          "type": "bytes4"
        }
      ],
      "name": "supportsInterface",
      "outputs": [
        {
          "internalType": "bool",
          "name": "",
          "type": "bool"
        }
      ],
      "stateMutability": "view",
      "type": "function"
    }
  ],
  "transactionHash": "0x89d77fae3b350b987b1fd0af6d38f2af371b53a7dbbc167639a1a14f4ee94e2f",
  "args": [
    "0x97ea372254e8bF2Da32fD2756934d798C12bef54",
    "0x49d25DD6a5BC2993c1A4762F826065940909Ee5F"
  ],
  "solcInputHash": "0df7f4d9bbaa655e9b2e37e4ad9c32d5",
  "bytecode": "0x608060405234801561001057600080fd5b50604051610dc1380380610dc183398101604081905261002f916101c0565b6001600160a01b0382166100775760405162461bcd60e51b815260206004820152600a6024820152692d22a927afaa27a5a2a760b11b60448201526064015b60405180910390fd5b6001600160a01b0381166100ba5760405162461bcd60e51b815260206004820152600a6024820152692d22a927afaa27a5a2a760b11b604482015260640161006e565b600180546001600160a01b038085166001600160a01b03199283161790925560028054928416929091169190911790556100f56000336100fc565b50506101fa565b610106828261010a565b5050565b6000828152602081815260408083206001600160a01b038516845290915290205460ff16610106576000828152602081815260408083206001600160a01b03851684529091529020805460ff191660011790556101643390565b6001600160a01b0316816001600160a01b0316837f2f8788117e7eff1d82e926ec794901d17c78024a50270940304540a733656f0d60405160405180910390a45050565b6001600160a01b03811681146101bd57600080fd5b50565b600080604083850312156101d357600080fd5b82516101de816101a8565b60208401519092506101ef816101a8565b809150509250929050565b610bb8806102096000396000f3fe608060405234801561001057600080fd5b50600436106100b45760003560e01c80638ba9c828116100715780638ba9c8281461018c57806391d148541461019f578063a217fddf146101b2578063c01e1bd6146101ba578063d547741f146101cd578063d72ce90e146101e057600080fd5b806301ffc9a7146100b957806307e2cea5146100e1578063248a9ca3146101165780632f2ff15d1461013957806336568abe1461014e57806356eff26714610161575b600080fd5b6100cc6100c736600461087e565b6101f3565b60405190151581526020015b60405180910390f35b6101087f68e79a7bf1e0bc45d0a330c573bc367f9cf464fd326078812f301165fbda4ef181565b6040519081526020016100d8565b6101086101243660046108a8565b60009081526020819052604090206001015490565b61014c6101473660046108dd565b61022a565b005b61014c61015c3660046108dd565b610255565b600254610174906001600160a01b031681565b6040516001600160a01b0390911681526020016100d8565b61014c61019a366004610909565b6102d8565b6100cc6101ad3660046108dd565b6103f0565b610108600081565b600154610174906001600160a01b031681565b61014c6101db3660046108dd565b610419565b61014c6101ee366004610949565b61043f565b60006001600160e01b03198216637965db0b60e01b148061022457506301ffc9a760e01b6001600160e01b03198316145b92915050565b600082815260208190526040902060010154610246813361058e565b61025083836105f2565b505050565b6001600160a01b03811633146102ca5760405162461bcd60e51b815260206004820152602f60248201527f416363657373436f6e74726f6c3a2063616e206f6e6c792072656e6f756e636560448201526e103937b632b9903337b91039b2b63360891b60648201526084015b60405180910390fd5b6102d48282610676565b5050565b6002546040516323b872dd60e01b8152336004820152306024820152604481018390526001600160a01b03909116906323b872dd90606401600060405180830381600087803b15801561032a57600080fd5b505af115801561033e573d6000803e3d6000fd5b5050600254604051630852cd8d60e31b8152600481018590526001600160a01b0390911692506342966c689150602401600060405180830381600087803b15801561038857600080fd5b505af115801561039c573d6000803e3d6000fd5b5050600154604080516001600160a01b0392831681526020810186905291861693503392507f2fc3848834aac8e883a2d2a17a7514dc4f2d3dd268089df9b9f5d918259ef3b0910160405180910390a35050565b6000918252602082815260408084206001600160a01b0393909316845291905290205460ff1690565b600082815260208190526040902060010154610435813361058e565b6102508383610676565b7f68e79a7bf1e0bc45d0a330c573bc367f9cf464fd326078812f301165fbda4ef161046a813361058e565b6001600160a01b0384166104c05760405162461bcd60e51b815260206004820181905260248201527f546f6b656e2063616e6e6f7420626520746865207a65726f206164647265737360448201526064016102c1565b6002546040516340c10f1960e01b81526001600160a01b03868116600483015260248201859052909116906340c10f1990604401600060405180830381600087803b15801561050e57600080fd5b505af1158015610522573d6000803e3d6000fd5b50505050836001600160a01b03168360405161053e9190610a44565b60405190819003812060015485835290916001600160a01b03909116907f446cb21a5a87b0b9b961eb4bb0b800e29accb236e438a2bc207ac4631a40c0959060200160405180910390a450505050565b61059882826103f0565b6102d4576105b0816001600160a01b031660146106db565b6105bb8360206106db565b6040516020016105cc929190610a60565b60408051601f198184030181529082905262461bcd60e51b82526102c191600401610ad5565b6105fc82826103f0565b6102d4576000828152602081815260408083206001600160a01b03851684529091529020805460ff191660011790556106323390565b6001600160a01b0316816001600160a01b0316837f2f8788117e7eff1d82e926ec794901d17c78024a50270940304540a733656f0d60405160405180910390a45050565b61068082826103f0565b156102d4576000828152602081815260408083206001600160a01b0385168085529252808320805460ff1916905551339285917ff6391f5c32d9c69d2a47ea670b442974b53935d1edc7fd64eb21e047a839171b9190a45050565b606060006106ea836002610b1e565b6106f5906002610b3d565b67ffffffffffffffff81111561070d5761070d610933565b6040519080825280601f01601f191660200182016040528015610737576020820181803683370190505b509050600360fc1b8160008151811061075257610752610b55565b60200101906001600160f81b031916908160001a905350600f60fb1b8160018151811061078157610781610b55565b60200101906001600160f81b031916908160001a90535060006107a5846002610b1e565b6107b0906001610b3d565b90505b6001811115610828576f181899199a1a9b1b9c1cb0b131b232b360811b85600f16601081106107e4576107e4610b55565b1a60f81b8282815181106107fa576107fa610b55565b60200101906001600160f81b031916908160001a90535060049490941c9361082181610b6b565b90506107b3565b5083156108775760405162461bcd60e51b815260206004820181905260248201527f537472696e67733a20686578206c656e67746820696e73756666696369656e7460448201526064016102c1565b9392505050565b60006020828403121561089057600080fd5b81356001600160e01b03198116811461087757600080fd5b6000602082840312156108ba57600080fd5b5035919050565b80356001600160a01b03811681146108d857600080fd5b919050565b600080604083850312156108f057600080fd5b82359150610900602084016108c1565b90509250929050565b6000806040838503121561091c57600080fd5b610925836108c1565b946020939093013593505050565b634e487b7160e01b600052604160045260246000fd5b60008060006060848603121561095e57600080fd5b610967846108c1565b9250602084013567ffffffffffffffff8082111561098457600080fd5b818601915086601f83011261099857600080fd5b8135818111156109aa576109aa610933565b604051601f8201601f19908116603f011681019083821181831017156109d2576109d2610933565b816040528281528960208487010111156109eb57600080fd5b826020860160208301376000602084830101528096505050505050604084013590509250925092565b60005b83811015610a2f578181015183820152602001610a17565b83811115610a3e576000848401525b50505050565b60008251610a56818460208701610a14565b9190910192915050565b7f416363657373436f6e74726f6c3a206163636f756e7420000000000000000000815260008351610a98816017850160208801610a14565b7001034b99036b4b9b9b4b733903937b6329607d1b6017918401918201528351610ac9816028840160208801610a14565b01602801949350505050565b6020815260008251806020840152610af4816040850160208701610a14565b601f01601f19169190910160400192915050565b634e487b7160e01b600052601160045260246000fd5b6000816000190483118215151615610b3857610b38610b08565b500290565b60008219821115610b5057610b50610b08565b500190565b634e487b7160e01b600052603260045260246000fd5b600081610b7a57610b7a610b08565b50600019019056fea26469706673582212205c0ce6fe6cdcdad2a7aa523cc949fd464e5500a47135b71d339a9902424b9cd564736f6c63430008090033",
  "devdoc": {
    "author": "OnBridge IO*",
    "details": "This contract deployed on secondary network with Bridged token contract - upon `finalizeInboundTransfer` call from oracle, it mints corresponding amount of tokens on Layer 2 network - upon `outboundTransfer` call from token holder it withdraws and burns L2 the requested token",
    "kind": "dev",
    "methods": {
      "finalizeInboundTransfer(address,string,uint256)": {
        "params": {
          "_id": "Token id being deposited",
          "_l1Tx": "Tx hash of `L1Bridge.outboundTransfer` on L1 side",
          "_to": "L2 address of destination"
        }
      },
      "getRoleAdmin(bytes32)": {
        "details": "Returns the admin role that controls `role`. See {grantRole} and {revokeRole}. To change a role's admin, use {_setRoleAdmin}."
      },
      "grantRole(bytes32,address)": {
        "details": "Grants `role` to `account`. If `account` had not been already granted `role`, emits a {RoleGranted} event. Requirements: - the caller must have ``role``'s admin role."
      },
      "hasRole(bytes32,address)": {
        "details": "Returns `true` if `account` has been granted `role`."
      },
      "outboundTransfer(address,uint256)": {
        "params": {
          "_id": "Token id being withdrawn",
          "_to": "L1 address of destination"
        }
      },
      "renounceRole(bytes32,address)": {
        "details": "Revokes `role` from the calling account. Roles are often managed via {grantRole} and {revokeRole}: this function's purpose is to provide a mechanism for accounts to lose their privileges if they are compromised (such as when a trusted device is misplaced). If the calling account had been granted `role`, emits a {RoleRevoked} event. Requirements: - the caller must be `account`."
      },
      "revokeRole(bytes32,address)": {
        "details": "Revokes `role` from `account`. If `account` had been granted `role`, emits a {RoleRevoked} event. Requirements: - the caller must have ``role``'s admin role."
      },
      "supportsInterface(bytes4)": {
        "details": "See {IERC165-supportsInterface}."
      }
    },
    "title": "Bridge Layer 2 contract",
    "version": 1
  },
  "userdoc": {
    "kind": "user",
    "methods": {
      "finalizeInboundTransfer(address,string,uint256)": {
        "notice": "Finalizes a deposit from L1 to L2; callable only by ORACLE_ROLE"
      },
      "outboundTransfer(address,uint256)": {
        "notice": "Initiates a withdrawal from L2 to L1; callable by any tokenholder."
      }
    },
    "version": 1
  },
  "storageLayout": {
    "storage": [
      {
        "astId": 24,
        "contract": "contracts/L2Bridge.sol:L2Bridge",
        "label": "_roles",
        "offset": 0,
        "slot": "0",
        "type": "t_mapping(t_bytes32,t_struct(RoleData)19_storage)"
      },
      {
        "astId": 2594,
        "contract": "contracts/L2Bridge.sol:L2Bridge",
        "label": "l1Token",
        "offset": 0,
        "slot": "1",
        "type": "t_contract(IERC721)1311"
      },
      {
        "astId": 2597,
        "contract": "contracts/L2Bridge.sol:L2Bridge",
        "label": "l2Token",
        "offset": 0,
        "slot": "2",
        "type": "t_contract(IERC721Bridged)2588"
      }
    ],
    "types": {
      "t_address": {
        "encoding": "inplace",
        "label": "address",
        "numberOfBytes": "20"
      },
      "t_bool": {
        "encoding": "inplace",
        "label": "bool",
        "numberOfBytes": "1"
      },
      "t_bytes32": {
        "encoding": "inplace",
        "label": "bytes32",
        "numberOfBytes": "32"
      },
      "t_contract(IERC721)1311": {
        "encoding": "inplace",
        "label": "contract IERC721",
        "numberOfBytes": "20"
      },
      "t_contract(IERC721Bridged)2588": {
        "encoding": "inplace",
        "label": "contract IERC721Bridged",
        "numberOfBytes": "20"
      },
      "t_mapping(t_address,t_bool)": {
        "encoding": "mapping",
        "key": "t_address",
        "label": "mapping(address => bool)",
        "numberOfBytes": "32",
        "value": "t_bool"
      },
      "t_mapping(t_bytes32,t_struct(RoleData)19_storage)": {
        "encoding": "mapping",
        "key": "t_bytes32",
        "label": "mapping(bytes32 => struct AccessControl.RoleData)",
        "numberOfBytes": "32",
        "value": "t_struct(RoleData)19_storage"
      },
      "t_struct(RoleData)19_storage": {
        "encoding": "inplace",
        "label": "struct AccessControl.RoleData",
        "members": [
          {
            "astId": 16,
            "contract": "contracts/L2Bridge.sol:L2Bridge",
            "label": "members",
            "offset": 0,
            "slot": "0",
            "type": "t_mapping(t_address,t_bool)"
          },
          {
            "astId": 18,
            "contract": "contracts/L2Bridge.sol:L2Bridge",
            "label": "adminRole",
            "offset": 0,
            "slot": "1",
            "type": "t_bytes32"
          }
        ],
        "numberOfBytes": "64"
      }
    }
  }
}