{
  "address": "0x279e0cF58d6B3913C917222A61ba9ef5E9fF8057",
  "abi": [
    {
      "inputs": [
        {
          "internalType": "contract IERC721",
          "name": "_l1Token",
          "type": "address"
        },
        {
          "internalType": "contract DeBridgeGateMock",
          "name": "_l1DeBridgeGate",
          "type": "address"
        },
        {
          "internalType": "contract IERC721",
          "name": "_l2Token",
          "type": "address"
        },
        {
          "internalType": "address",
          "name": "_l2bridge",
          "type": "address"
        }
      ],
      "stateMutability": "nonpayable",
      "type": "constructor"
    },
    {
      "anonymous": false,
      "inputs": [
        {
          "indexed": true,
          "internalType": "address",
          "name": "l1Token",
          "type": "address"
        },
        {
          "indexed": true,
          "internalType": "address",
          "name": "_from",
          "type": "address"
        },
        {
          "indexed": true,
          "internalType": "address",
          "name": "_to",
          "type": "address"
        },
        {
          "indexed": false,
          "internalType": "uint256",
          "name": "_amount",
          "type": "uint256"
        }
      ],
      "name": "DepositInitiated",
      "type": "event"
    },
    {
      "anonymous": false,
      "inputs": [
        {
          "indexed": true,
          "internalType": "bytes32",
          "name": "role",
          "type": "bytes32"
        },
        {
          "indexed": true,
          "internalType": "bytes32",
          "name": "previousAdminRole",
          "type": "bytes32"
        },
        {
          "indexed": true,
          "internalType": "bytes32",
          "name": "newAdminRole",
          "type": "bytes32"
        }
      ],
      "name": "RoleAdminChanged",
      "type": "event"
    },
    {
      "anonymous": false,
      "inputs": [
        {
          "indexed": true,
          "internalType": "bytes32",
          "name": "role",
          "type": "bytes32"
        },
        {
          "indexed": true,
          "internalType": "address",
          "name": "account",
          "type": "address"
        },
        {
          "indexed": true,
          "internalType": "address",
          "name": "sender",
          "type": "address"
        }
      ],
      "name": "RoleGranted",
      "type": "event"
    },
    {
      "anonymous": false,
      "inputs": [
        {
          "indexed": true,
          "internalType": "bytes32",
          "name": "role",
          "type": "bytes32"
        },
        {
          "indexed": true,
          "internalType": "address",
          "name": "account",
          "type": "address"
        },
        {
          "indexed": true,
          "internalType": "address",
          "name": "sender",
          "type": "address"
        }
      ],
      "name": "RoleRevoked",
      "type": "event"
    },
    {
      "anonymous": false,
      "inputs": [
        {
          "indexed": true,
          "internalType": "address",
          "name": "l1Token",
          "type": "address"
        },
        {
          "indexed": true,
          "internalType": "string",
          "name": "_l2Tx",
          "type": "string"
        },
        {
          "indexed": true,
          "internalType": "address",
          "name": "_to",
          "type": "address"
        },
        {
          "indexed": false,
          "internalType": "uint256",
          "name": "_amount",
          "type": "uint256"
        }
      ],
      "name": "WithdrawalFinalized",
      "type": "event"
    },
    {
      "inputs": [],
      "name": "DEFAULT_ADMIN_ROLE",
      "outputs": [
        {
          "internalType": "bytes32",
          "name": "",
          "type": "bytes32"
        }
      ],
      "stateMutability": "view",
      "type": "function"
    },
    {
      "inputs": [],
      "name": "ORACLE_ROLE",
      "outputs": [
        {
          "internalType": "bytes32",
          "name": "",
          "type": "bytes32"
        }
      ],
      "stateMutability": "view",
      "type": "function"
    },
    {
      "inputs": [
        {
          "internalType": "address",
          "name": "_to",
          "type": "address"
        },
        {
          "internalType": "string",
          "name": "_l2Tx",
          "type": "string"
        },
        {
          "internalType": "uint256",
          "name": "_id",
          "type": "uint256"
        }
      ],
      "name": "finalizeInboundTransfer",
      "outputs": [],
      "stateMutability": "nonpayable",
      "type": "function"
    },
    {
      "inputs": [
        {
          "internalType": "bytes32",
          "name": "role",
          "type": "bytes32"
        }
      ],
      "name": "getRoleAdmin",
      "outputs": [
        {
          "internalType": "bytes32",
          "name": "",
          "type": "bytes32"
        }
      ],
      "stateMutability": "view",
      "type": "function"
    },
    {
      "inputs": [
        {
          "internalType": "bytes32",
          "name": "role",
          "type": "bytes32"
        },
        {
          "internalType": "address",
          "name": "account",
          "type": "address"
        }
      ],
      "name": "grantRole",
      "outputs": [],
      "stateMutability": "nonpayable",
      "type": "function"
    },
    {
      "inputs": [
        {
          "internalType": "bytes32",
          "name": "role",
          "type": "bytes32"
        },
        {
          "internalType": "address",
          "name": "account",
          "type": "address"
        }
      ],
      "name": "hasRole",
      "outputs": [
        {
          "internalType": "bool",
          "name": "",
          "type": "bool"
        }
      ],
      "stateMutability": "view",
      "type": "function"
    },
    {
      "inputs": [],
      "name": "l1DeBridgeGate",
      "outputs": [
        {
          "internalType": "contract DeBridgeGateMock",
          "name": "",
          "type": "address"
        }
      ],
      "stateMutability": "view",
      "type": "function"
    },
    {
      "inputs": [],
      "name": "l1Token",
      "outputs": [
        {
          "internalType": "contract IERC721",
          "name": "",
          "type": "address"
        }
      ],
      "stateMutability": "view",
      "type": "function"
    },
    {
      "inputs": [],
      "name": "l2Token",
      "outputs": [
        {
          "internalType": "contract IERC721",
          "name": "",
          "type": "address"
        }
      ],
      "stateMutability": "view",
      "type": "function"
    },
    {
      "inputs": [],
      "name": "l2bridge",
      "outputs": [
        {
          "internalType": "address",
          "name": "",
          "type": "address"
        }
      ],
      "stateMutability": "view",
      "type": "function"
    },
    {
      "inputs": [
        {
          "internalType": "address",
          "name": "_to",
          "type": "address"
        },
        {
          "internalType": "uint256",
          "name": "_id",
          "type": "uint256"
        }
      ],
      "name": "outboundTransfer",
      "outputs": [],
      "stateMutability": "payable",
      "type": "function"
    },
    {
      "inputs": [
        {
          "internalType": "bytes32",
          "name": "role",
          "type": "bytes32"
        },
        {
          "internalType": "address",
          "name": "account",
          "type": "address"
        }
      ],
      "name": "renounceRole",
      "outputs": [],
      "stateMutability": "nonpayable",
      "type": "function"
    },
    {
      "inputs": [
        {
          "internalType": "bytes32",
          "name": "role",
          "type": "bytes32"
        },
        {
          "internalType": "address",
          "name": "account",
          "type": "address"
        }
      ],
      "name": "revokeRole",
      "outputs": [],
      "stateMutability": "nonpayable",
      "type": "function"
    },
    {
      "inputs": [
        {
          "internalType": "address",
          "name": "_l2bridge",
          "type": "address"
        }
      ],
      "name": "setL2bridge",
      "outputs": [],
      "stateMutability": "nonpayable",
      "type": "function"
    },
    {
      "inputs": [
        {
          "internalType": "bytes4",
          "name": "interfaceId",
          "type": "bytes4"
        }
      ],
      "name": "supportsInterface",
      "outputs": [
        {
          "internalType": "bool",
          "name": "",
          "type": "bool"
        }
      ],
      "stateMutability": "view",
      "type": "function"
    }
  ],
  "transactionHash": "0x9d2a881e23c54c75a86547af10168421a27fdf0096ba0e19acdf077ff78b2475",
  "args": [
    "0x55904F2C4B672103a4E04E6BFcb1c5DDC4f41D6F",
    "0x68D936Cb4723BdD38C488FD50514803f96789d2D",
    "0x31649ac584eBcBfD465b49304eB27574B2111F0B",
    "0x463b31B32417f122d25cbAF84Ff263723c11de64"
  ],
  "solcInputHash": "4603cfdd99e6ab14988de1ef00ea8073",
  "bytecode": "0x60806040523480156200001157600080fd5b50604051620012c8380380620012c88339810160408190526200003491620001ec565b6001600160a01b0384166200007d5760405162461bcd60e51b815260206004820152600a6024820152692d22a927afaa27a5a2a760b11b60448201526064015b60405180910390fd5b6001600160a01b038216620000c25760405162461bcd60e51b815260206004820152600a6024820152692d22a927afaa27a5a2a760b11b604482015260640162000074565b600180546001600160a01b038087166001600160a01b031992831617909255600280548684169083161790556004805485841690831617905560038054928416929091169190911790556200011960003362000123565b5050505062000254565b6200012f828262000133565b5050565b6000828152602081815260408083206001600160a01b038516845290915290205460ff166200012f576000828152602081815260408083206001600160a01b03851684529091529020805460ff191660011790556200018f3390565b6001600160a01b0316816001600160a01b0316837f2f8788117e7eff1d82e926ec794901d17c78024a50270940304540a733656f0d60405160405180910390a45050565b6001600160a01b0381168114620001e957600080fd5b50565b600080600080608085870312156200020357600080fd5b84516200021081620001d3565b60208601519094506200022381620001d3565b60408601519093506200023681620001d3565b60608601519092506200024981620001d3565b939692955090935050565b61106480620002646000396000f3fe6080604052600436106100e85760003560e01c80638ba9c8281161008a578063cd4f3b0811610059578063cd4f3b0814610296578063d547741f146102b6578063d72ce90e146102d6578063f4cb8019146102f657600080fd5b80638ba9c8281461022e57806391d1485414610241578063a217fddf14610261578063c01e1bd61461027657600080fd5b8063248a9ca3116100c6578063248a9ca3146101865780632f2ff15d146101b657806336568abe146101d657806356eff267146101f657600080fd5b806301ffc9a7146100ed57806307e2cea5146101225780631ccd7ee414610164575b600080fd5b3480156100f957600080fd5b5061010d610108366004610b44565b610316565b60405190151581526020015b60405180910390f35b34801561012e57600080fd5b506101567f68e79a7bf1e0bc45d0a330c573bc367f9cf464fd326078812f301165fbda4ef181565b604051908152602001610119565b34801561017057600080fd5b5061018461017f366004610b8a565b61034d565b005b34801561019257600080fd5b506101566101a1366004610ba5565b60009081526020819052604090206001015490565b3480156101c257600080fd5b506101846101d1366004610bbe565b61037c565b3480156101e257600080fd5b506101846101f1366004610bbe565b6103a7565b34801561020257600080fd5b50600454610216906001600160a01b031681565b6040516001600160a01b039091168152602001610119565b61018461023c366004610bea565b61042a565b34801561024d57600080fd5b5061010d61025c366004610bbe565b6106c2565b34801561026d57600080fd5b50610156600081565b34801561028257600080fd5b50600154610216906001600160a01b031681565b3480156102a257600080fd5b50600354610216906001600160a01b031681565b3480156102c257600080fd5b506101846102d1366004610bbe565b6106eb565b3480156102e257600080fd5b506101846102f1366004610c2a565b610711565b34801561030257600080fd5b50600254610216906001600160a01b031681565b60006001600160e01b03198216637965db0b60e01b148061034757506301ffc9a760e01b6001600160e01b03198316145b92915050565b60006103598133610854565b50600380546001600160a01b0319166001600160a01b0392909216919091179055565b6000828152602081905260409020600101546103988133610854565b6103a283836108b8565b505050565b6001600160a01b038116331461041c5760405162461bcd60e51b815260206004820152602f60248201527f416363657373436f6e74726f6c3a2063616e206f6e6c792072656e6f756e636560448201526e103937b632b9903337b91039b2b63360891b60648201526084015b60405180910390fd5b610426828261093c565b5050565b6001546040516323b872dd60e01b8152336004820152306024820152604481018390526001600160a01b03909116906323b872dd90606401600060405180830381600087803b15801561047c57600080fd5b505af1158015610490573d6000803e3d6000fd5b5050604080516020808201835260008083528351608081018552818152918201819052606093820184905283820193909352606194509092506104d4600280610def565b6104e060016002610def565b6104ea9190610dfb565b602080830191909152666a94d74f4300008252600354604051610531926001600160a01b03909216910160609190911b6bffffffffffffffffffffffff1916815260140190565b60408051601f1981840301815291815282810191909152516001600160a01b038716602482015260606044820152600060848201526064810186905260a40160408051601f19818403018152918152602080830180516001600160e01b0316636b96748760e11b179052606084019290925260025460035491516001600160a01b039182169363be29747693349360009385938c936105ea9316910160609190911b6bffffffffffffffffffffffff1916815260140190565b6040516020818303038152906040528960008a8a60405160200161060e9190610e6f565b6040516020818303038152906040526040518a63ffffffff1660e01b8152600401610640989796959493929190610ec5565b6000604051808303818588803b15801561065957600080fd5b505af115801561066d573d6000803e3d6000fd5b50506001546040518981526001600160a01b038b8116955033945090911691507f7abe8fd2d210cf1e5d2cb3e277afd776d77269c8869b02c39f0bb542de0fdba19060200160405180910390a4505050505050565b6000918252602082815260408084206001600160a01b0393909316845291905290205460ff1690565b6000828152602081905260409020600101546107078133610854565b6103a2838361093c565b7f68e79a7bf1e0bc45d0a330c573bc367f9cf464fd326078812f301165fbda4ef161073c8133610854565b6001600160a01b0384166107805760405162461bcd60e51b815260206004820152600b60248201526a2727afa922a1a2a4ab22a960a91b6044820152606401610413565b6001546040516323b872dd60e01b81523060048201526001600160a01b03868116602483015260448201859052909116906323b872dd90606401600060405180830381600087803b1580156107d457600080fd5b505af11580156107e8573d6000803e3d6000fd5b50505050836001600160a01b0316836040516108049190610f3e565b60405190819003812060015485835290916001600160a01b03909116907f67d675f6468b292e45b4a99685f1e56065b470c5f643ad48ed535d6fee7c65e79060200160405180910390a450505050565b61085e82826106c2565b61042657610876816001600160a01b031660146109a1565b6108818360206109a1565b604051602001610892929190610f5a565b60408051601f198184030181529082905262461bcd60e51b825261041391600401610fcf565b6108c282826106c2565b610426576000828152602081815260408083206001600160a01b03851684529091529020805460ff191660011790556108f83390565b6001600160a01b0316816001600160a01b0316837f2f8788117e7eff1d82e926ec794901d17c78024a50270940304540a733656f0d60405160405180910390a45050565b61094682826106c2565b15610426576000828152602081815260408083206001600160a01b0385168085529252808320805460ff1916905551339285917ff6391f5c32d9c69d2a47ea670b442974b53935d1edc7fd64eb21e047a839171b9190a45050565b606060006109b0836002610fe2565b6109bb906002610dfb565b67ffffffffffffffff8111156109d3576109d3610c14565b6040519080825280601f01601f1916602001820160405280156109fd576020820181803683370190505b509050600360fc1b81600081518110610a1857610a18611001565b60200101906001600160f81b031916908160001a905350600f60fb1b81600181518110610a4757610a47611001565b60200101906001600160f81b031916908160001a9053506000610a6b846002610fe2565b610a76906001610dfb565b90505b6001811115610aee576f181899199a1a9b1b9c1cb0b131b232b360811b85600f1660108110610aaa57610aaa611001565b1a60f81b828281518110610ac057610ac0611001565b60200101906001600160f81b031916908160001a90535060049490941c93610ae781611017565b9050610a79565b508315610b3d5760405162461bcd60e51b815260206004820181905260248201527f537472696e67733a20686578206c656e67746820696e73756666696369656e746044820152606401610413565b9392505050565b600060208284031215610b5657600080fd5b81356001600160e01b031981168114610b3d57600080fd5b80356001600160a01b0381168114610b8557600080fd5b919050565b600060208284031215610b9c57600080fd5b610b3d82610b6e565b600060208284031215610bb757600080fd5b5035919050565b60008060408385031215610bd157600080fd5b82359150610be160208401610b6e565b90509250929050565b60008060408385031215610bfd57600080fd5b610c0683610b6e565b946020939093013593505050565b634e487b7160e01b600052604160045260246000fd5b600080600060608486031215610c3f57600080fd5b610c4884610b6e565b9250602084013567ffffffffffffffff80821115610c6557600080fd5b818601915086601f830112610c7957600080fd5b813581811115610c8b57610c8b610c14565b604051601f8201601f19908116603f01168101908382118183101715610cb357610cb3610c14565b81604052828152896020848701011115610ccc57600080fd5b826020860160208301376000602084830101528096505050505050604084013590509250925092565b634e487b7160e01b600052601160045260246000fd5b600181815b80851115610d46578160001904821115610d2c57610d2c610cf5565b80851615610d3957918102915b93841c9390800290610d10565b509250929050565b600082610d5d57506001610347565b81610d6a57506000610347565b8160018114610d805760028114610d8a57610da6565b6001915050610347565b60ff841115610d9b57610d9b610cf5565b50506001821b610347565b5060208310610133831016604e8410600b8410161715610dc9575081810a610347565b610dd38383610d0b565b8060001904821115610de757610de7610cf5565b029392505050565b6000610b3d8383610d4e565b60008219821115610e0e57610e0e610cf5565b500190565b60005b83811015610e2e578181015183820152602001610e16565b83811115610e3d576000848401525b50505050565b60008151808452610e5b816020860160208601610e13565b601f01601f19169290920160200192915050565b6020815281516020820152602082015160408201526000604083015160806060840152610e9f60a0840182610e43565b90506060840151601f19848303016080850152610ebc8282610e43565b95945050505050565b600061010060018060a01b038b168352896020840152886040840152806060840152610ef381840189610e43565b90508281036080840152610f078188610e43565b905085151560a084015263ffffffff851660c084015282810360e0840152610f2f8185610e43565b9b9a5050505050505050505050565b60008251610f50818460208701610e13565b9190910192915050565b7f416363657373436f6e74726f6c3a206163636f756e7420000000000000000000815260008351610f92816017850160208801610e13565b7001034b99036b4b9b9b4b733903937b6329607d1b6017918401918201528351610fc3816028840160208801610e13565b01602801949350505050565b602081526000610b3d6020830184610e43565b6000816000190483118215151615610ffc57610ffc610cf5565b500290565b634e487b7160e01b600052603260045260246000fd5b60008161102657611026610cf5565b50600019019056fea26469706673582212209cb14e82912bbe4748a6db84bc6a053779aa003723f265a38ebaa3a0e2b9ae4a64736f6c63430008090033",
  "devdoc": {
    "author": "OnBridge IO*",
    "details": "This contract gets deployed on main network and receives and locks tokens to bridge them on L2 - upon `finalizeInboundTransfer` called by oracle, and releases corresponding amount of tokens back to holder - upon `outboundTransfer` called by token holder to deposit token to L2",
    "kind": "dev",
    "methods": {
      "finalizeInboundTransfer(address,string,uint256)": {
        "params": {
          "_id": "Token id being withdrawn",
          "_l2Tx": "Tx hash of `L2Bridge.outboundTransfer` on L2 side",
          "_to": "L1 address of destination"
        }
      },
      "getRoleAdmin(bytes32)": {
        "details": "Returns the admin role that controls `role`. See {grantRole} and {revokeRole}. To change a role's admin, use {_setRoleAdmin}."
      },
      "grantRole(bytes32,address)": {
        "details": "Grants `role` to `account`. If `account` had not been already granted `role`, emits a {RoleGranted} event. Requirements: - the caller must have ``role``'s admin role."
      },
      "hasRole(bytes32,address)": {
        "details": "Returns `true` if `account` has been granted `role`."
      },
      "outboundTransfer(address,uint256)": {
        "params": {
          "_id": "Token id that will be bridged",
          "_to": "L2 address of destination"
        }
      },
      "renounceRole(bytes32,address)": {
        "details": "Revokes `role` from the calling account. Roles are often managed via {grantRole} and {revokeRole}: this function's purpose is to provide a mechanism for accounts to lose their privileges if they are compromised (such as when a trusted device is misplaced). If the calling account had been granted `role`, emits a {RoleRevoked} event. Requirements: - the caller must be `account`."
      },
      "revokeRole(bytes32,address)": {
        "details": "Revokes `role` from `account`. If `account` had been granted `role`, emits a {RoleRevoked} event. Requirements: - the caller must have ``role``'s admin role."
      },
      "setL2bridge(address)": {
        "params": {
          "_l2bridge": "new L2 Bridge"
        }
      },
      "supportsInterface(bytes4)": {
        "details": "See {IERC165-supportsInterface}."
      }
    },
    "title": "Bridge Layer 1 contract",
    "version": 1
  },
  "userdoc": {
    "kind": "user",
    "methods": {
      "finalizeInboundTransfer(address,string,uint256)": {
        "notice": "Finalizes withdrawal initiated on L2. callable only by ORACLE_ROLE"
      },
      "outboundTransfer(address,uint256)": {
        "notice": "Initiates a deposit from L1 to L2; callable by any tokenholder. The token should be approved by the holder"
      },
      "setL2bridge(address)": {
        "notice": "Update address of L2Bridge contract"
      }
    },
    "version": 1
  },
  "storageLayout": {
    "storage": [
      {
        "astId": 24,
        "contract": "contracts/L1Bridge.sol:L1Bridge",
        "label": "_roles",
        "offset": 0,
        "slot": "0",
        "type": "t_mapping(t_bytes32,t_struct(RoleData)19_storage)"
      },
      {
        "astId": 2294,
        "contract": "contracts/L1Bridge.sol:L1Bridge",
        "label": "l1Token",
        "offset": 0,
        "slot": "1",
        "type": "t_contract(IERC721)1311"
      },
      {
        "astId": 2297,
        "contract": "contracts/L1Bridge.sol:L1Bridge",
        "label": "l1DeBridgeGate",
        "offset": 0,
        "slot": "2",
        "type": "t_contract(DeBridgeGateMock)3131"
      },
      {
        "astId": 2299,
        "contract": "contracts/L1Bridge.sol:L1Bridge",
        "label": "l2bridge",
        "offset": 0,
        "slot": "3",
        "type": "t_address"
      },
      {
        "astId": 2302,
        "contract": "contracts/L1Bridge.sol:L1Bridge",
        "label": "l2Token",
        "offset": 0,
        "slot": "4",
        "type": "t_contract(IERC721)1311"
      }
    ],
    "types": {
      "t_address": {
        "encoding": "inplace",
        "label": "address",
        "numberOfBytes": "20"
      },
      "t_bool": {
        "encoding": "inplace",
        "label": "bool",
        "numberOfBytes": "1"
      },
      "t_bytes32": {
        "encoding": "inplace",
        "label": "bytes32",
        "numberOfBytes": "32"
      },
      "t_contract(DeBridgeGateMock)3131": {
        "encoding": "inplace",
        "label": "contract DeBridgeGateMock",
        "numberOfBytes": "20"
      },
      "t_contract(IERC721)1311": {
        "encoding": "inplace",
        "label": "contract IERC721",
        "numberOfBytes": "20"
      },
      "t_mapping(t_address,t_bool)": {
        "encoding": "mapping",
        "key": "t_address",
        "label": "mapping(address => bool)",
        "numberOfBytes": "32",
        "value": "t_bool"
      },
      "t_mapping(t_bytes32,t_struct(RoleData)19_storage)": {
        "encoding": "mapping",
        "key": "t_bytes32",
        "label": "mapping(bytes32 => struct AccessControl.RoleData)",
        "numberOfBytes": "32",
        "value": "t_struct(RoleData)19_storage"
      },
      "t_struct(RoleData)19_storage": {
        "encoding": "inplace",
        "label": "struct AccessControl.RoleData",
        "members": [
          {
            "astId": 16,
            "contract": "contracts/L1Bridge.sol:L1Bridge",
            "label": "members",
            "offset": 0,
            "slot": "0",
            "type": "t_mapping(t_address,t_bool)"
          },
          {
            "astId": 18,
            "contract": "contracts/L1Bridge.sol:L1Bridge",
            "label": "adminRole",
            "offset": 0,
            "slot": "1",
            "type": "t_bytes32"
          }
        ],
        "numberOfBytes": "64"
      }
    }
  }
}